{
  "address": "0xFa7595FF0aC8549a23401819B6ba114Ec0071cC2",
  "abi": [
    {
      "inputs": [
        {
          "internalType": "address payable",
          "name": "_creator",
          "type": "address"
        },
        {
          "internalType": "address payable",
          "name": "_charity",
          "type": "address"
        },
        {
          "internalType": "address",
          "name": "_operator",
          "type": "address"
        }
      ],
      "stateMutability": "nonpayable",
      "type": "constructor"
    },
    {
      "anonymous": false,
      "inputs": [
        {
          "indexed": true,
          "internalType": "uint256",
          "name": "tokenId",
          "type": "uint256"
        },
        {
          "indexed": true,
          "internalType": "uint256",
          "name": "priceReceived",
          "type": "uint256"
        },
        {
          "indexed": true,
          "internalType": "uint256",
          "name": "reserveAfterBurn",
          "type": "uint256"
        }
      ],
      "name": "Burned",
      "type": "event"
    },
    {
      "anonymous": false,
      "inputs": [
        {
          "indexed": true,
          "internalType": "uint256",
          "name": "tokenId",
          "type": "uint256"
        },
        {
          "indexed": true,
          "internalType": "uint256",
          "name": "lotteryId",
          "type": "uint256"
        },
        {
          "indexed": false,
          "internalType": "bool",
          "name": "isWinner",
          "type": "bool"
        },
        {
          "indexed": true,
          "internalType": "uint256",
          "name": "prizeAmount",
          "type": "uint256"
        }
      ],
      "name": "Lottery",
      "type": "event"
    },
    {
      "anonymous": false,
      "inputs": [
        {
          "indexed": true,
          "internalType": "uint256",
          "name": "tokenId",
          "type": "uint256"
        },
        {
          "indexed": true,
          "internalType": "uint256",
          "name": "pricePaid",
          "type": "uint256"
        },
        {
          "indexed": true,
          "internalType": "uint256",
          "name": "reserveAfterMint",
          "type": "uint256"
        }
      ],
      "name": "Minted",
      "type": "event"
    },
    {
      "anonymous": false,
      "inputs": [
        {
          "indexed": true,
          "internalType": "address",
          "name": "previousOwner",
          "type": "address"
        },
        {
          "indexed": true,
          "internalType": "address",
          "name": "newOwner",
          "type": "address"
        }
      ],
      "name": "OwnershipTransferred",
      "type": "event"
    },
    {
      "anonymous": false,
      "inputs": [
        {
          "indexed": false,
          "internalType": "uint256",
          "name": "round",
          "type": "uint256"
        },
        {
          "indexed": false,
          "internalType": "bytes",
          "name": "data",
          "type": "bytes"
        }
      ],
      "name": "RequestedRandomness",
      "type": "event"
    },
    {
      "inputs": [
        {
          "internalType": "uint256",
          "name": "tokenId",
          "type": "uint256"
        }
      ],
      "name": "burn",
      "outputs": [],
      "stateMutability": "nonpayable",
      "type": "function"
    },
    {
      "inputs": [],
      "name": "charity",
      "outputs": [
        {
          "internalType": "address payable",
          "name": "",
          "type": "address"
        }
      ],
      "stateMutability": "view",
      "type": "function"
    },
    {
      "inputs": [],
      "name": "creator",
      "outputs": [
        {
          "internalType": "address payable",
          "name": "",
          "type": "address"
        }
      ],
      "stateMutability": "view",
      "type": "function"
    },
    {
      "inputs": [
        {
          "internalType": "uint256",
          "name": "randomness",
          "type": "uint256"
        },
        {
          "internalType": "bytes",
          "name": "dataWithRound",
          "type": "bytes"
        }
      ],
      "name": "fulfillRandomness",
      "outputs": [],
      "stateMutability": "nonpayable",
      "type": "function"
    },
    {
      "inputs": [],
      "name": "gameEnded",
      "outputs": [
        {
          "internalType": "bool",
          "name": "",
          "type": "bool"
        }
      ],
      "stateMutability": "view",
      "type": "function"
    },
    {
      "inputs": [],
      "name": "getCurrentPriceToBurn",
      "outputs": [
        {
          "internalType": "uint256",
          "name": "",
          "type": "uint256"
        }
      ],
      "stateMutability": "view",
      "type": "function"
    },
    {
      "inputs": [],
      "name": "getCurrentPriceToMint",
      "outputs": [
        {
          "internalType": "uint256",
          "name": "",
          "type": "uint256"
        }
      ],
      "stateMutability": "view",
      "type": "function"
    },
    {
      "inputs": [],
      "name": "getReserveCut",
      "outputs": [
        {
          "internalType": "uint256",
          "name": "",
          "type": "uint256"
        }
      ],
      "stateMutability": "view",
      "type": "function"
    },
    {
      "inputs": [],
      "name": "initMintPrice",
      "outputs": [
        {
          "internalType": "uint256",
          "name": "",
          "type": "uint256"
        }
      ],
      "stateMutability": "view",
      "type": "function"
    },
    {
      "inputs": [
        {
          "internalType": "contract ERC721",
          "name": "_nft",
          "type": "address"
        }
      ],
      "name": "initNFT",
      "outputs": [],
      "stateMutability": "nonpayable",
      "type": "function"
    },
    {
      "inputs": [
        {
          "internalType": "uint256",
          "name": "tokenId",
          "type": "uint256"
        }
      ],
      "name": "isRare",
      "outputs": [
        {
          "internalType": "bool",
          "name": "",
          "type": "bool"
        }
      ],
      "stateMutability": "pure",
      "type": "function"
    },
    {
      "inputs": [
        {
          "internalType": "uint256",
          "name": "tokenId",
          "type": "uint256"
        }
      ],
      "name": "isUkrainianFlag",
      "outputs": [
        {
          "internalType": "bool",
          "name": "",
          "type": "bool"
        }
      ],
      "stateMutability": "pure",
      "type": "function"
    },
    {
      "inputs": [],
      "name": "mint",
      "outputs": [],
      "stateMutability": "payable",
      "type": "function"
    },
    {
      "inputs": [],
      "name": "nft",
      "outputs": [
        {
          "internalType": "contract ERC721",
          "name": "",
          "type": "address"
        }
      ],
      "stateMutability": "view",
      "type": "function"
    },
    {
      "inputs": [],
      "name": "nftsCount",
      "outputs": [
        {
          "internalType": "uint256",
          "name": "",
          "type": "uint256"
        }
      ],
      "stateMutability": "view",
      "type": "function"
    },
    {
      "inputs": [],
      "name": "owner",
      "outputs": [
        {
          "internalType": "address",
          "name": "",
          "type": "address"
        }
      ],
      "stateMutability": "view",
      "type": "function"
    },
    {
      "inputs": [],
      "name": "rarePrizeMultiplier",
      "outputs": [
        {
          "internalType": "uint256",
          "name": "",
          "type": "uint256"
        }
      ],
      "stateMutability": "view",
      "type": "function"
    },
    {
      "inputs": [],
      "name": "renounceOwnership",
      "outputs": [],
      "stateMutability": "nonpayable",
      "type": "function"
    },
    {
      "inputs": [
        {
          "internalType": "uint256",
          "name": "",
          "type": "uint256"
        }
      ],
      "name": "requestPending",
      "outputs": [
        {
          "internalType": "bool",
          "name": "",
          "type": "bool"
        }
      ],
      "stateMutability": "view",
      "type": "function"
    },
    {
      "inputs": [
        {
          "internalType": "uint256",
          "name": "",
          "type": "uint256"
        }
      ],
      "name": "requestedHash",
      "outputs": [
        {
          "internalType": "bytes32",
          "name": "",
          "type": "bytes32"
        }
      ],
      "stateMutability": "view",
      "type": "function"
    },
    {
      "inputs": [
        {
          "internalType": "uint256",
          "name": "",
          "type": "uint256"
        }
      ],
      "name": "requests",
      "outputs": [
        {
          "internalType": "bool",
          "name": "isMint",
          "type": "bool"
        },
        {
          "internalType": "address",
          "name": "_address",
          "type": "address"
        },
        {
          "internalType": "uint256",
          "name": "_price",
          "type": "uint256"
        },
        {
          "internalType": "uint256",
          "name": "_reserve",
          "type": "uint256"
        },
        {
          "internalType": "uint256",
          "name": "_tokenId",
          "type": "uint256"
        }
      ],
      "stateMutability": "view",
      "type": "function"
    },
    {
      "inputs": [],
      "name": "reserve",
      "outputs": [
        {
          "internalType": "uint256",
          "name": "",
          "type": "uint256"
        }
      ],
      "stateMutability": "view",
      "type": "function"
    },
    {
      "inputs": [
        {
          "internalType": "uint256",
          "name": "_flagMultiplier",
          "type": "uint256"
        },
        {
          "internalType": "uint256",
          "name": "_rareMultiplier",
          "type": "uint256"
        }
      ],
      "name": "setPrizeMultipliers",
      "outputs": [],
      "stateMutability": "nonpayable",
      "type": "function"
    },
    {
      "inputs": [
        {
          "internalType": "address",
          "name": "newOwner",
          "type": "address"
        }
      ],
      "name": "transferOwnership",
      "outputs": [],
      "stateMutability": "nonpayable",
      "type": "function"
    },
    {
      "inputs": [],
      "name": "ukrainianFlagPrizeMultiplier",
      "outputs": [
        {
          "internalType": "uint256",
          "name": "",
          "type": "uint256"
        }
      ],
      "stateMutability": "view",
      "type": "function"
    }
  ],
  "transactionHash": "0xa3d93e4df24ce95794c44f6df9a15ac915522235dc6a1a75ab461bb99d7f834a",
  "args": [
    "0x1135D4546611D7CcCC7C4E0315072Ef2E61b9483",
    "0x1135D4546611D7CcCC7C4E0315072Ef2E61b9483",
    "0x1F919E17bB2f322bd1ed5Bf822988C37162CF46c"
  ],
  "solcInputHash": "8334a75f633921739b94196c7e030d9a",
  "bytecode": "0x60e06040523480156200001157600080fd5b5060405162003d5038038062003d508339810160408190526200003491620001d4565b6200003f3362000169565b6001600160a01b0383166200009b5760405162461bcd60e51b815260206004820152601760248201527f496e76616c69642063726561746f72206164647265737300000000000000000060448201526064015b60405180910390fd5b6001600160a01b038216620000f35760405162461bcd60e51b815260206004820152601760248201527f496e76616c696420636861726974792061646472657373000000000000000000604482015260640162000092565b6001600160a01b0381166200014b5760405162461bcd60e51b815260206004820152601860248201527f496e76616c6964206f70657261746f7220616464726573730000000000000000604482015260640162000092565b6001600160a01b0392831660805290821660a0521660c05262000228565b600280546001600160a01b038381166001600160a01b0319831681179093556040519116919082907f8be0079c531659141344cd1fd0a4f28419497f9722a3daafe3b4186f6b6457e090600090a35050565b6001600160a01b0381168114620001d157600080fd5b50565b600080600060608486031215620001ea57600080fd5b8351620001f781620001bb565b60208501519093506200020a81620001bb565b60408501519092506200021d81620001bb565b809150509250925092565b60805160a05160c051613aea620002666000396000610d480152600081816103d1015261089901526000818161017d01526107c40152613aea6000f3fe6080604052600436106101665760003560e01c806381d12c58116100d1578063b3f6b99a1161008a578063cd3293de11610064578063cd3293de1461048b578063d441426a146104a1578063e4628745146104b6578063f2fde38b146104cb57600080fd5b8063b3f6b99a14610429578063c4f8f27b14610449578063c96b65441461047657600080fd5b806381d12c58146103035780638aa319541461038b5780638da5cb5b146103a1578063934aa023146103bf578063a0420d52146103f3578063a6d2d02e1461040957600080fd5b806341d6bbd61161012357806341d6bbd61461025857806342966c681461027857806347ccca02146102985780635cf0ef7a146102b8578063715018a6146102ce57806375ce7fff146102e357600080fd5b806302d05d3f1461016b578063066ea10d146101bc5780631249c58b146101ec5780631649229f146101f65780631fe09da31461021e5780632f6fe3961461023e575b600080fd5b34801561017757600080fd5b5061019f7f000000000000000000000000000000000000000000000000000000000000000081565b6040516001600160a01b0390911681526020015b60405180910390f35b3480156101c857600080fd5b506101dc6101d7366004613658565b6104eb565b60405190151581526020016101b3565b6101f4610606565b005b34801561020257600080fd5b50610210655af3107a400081565b6040519081526020016101b3565b34801561022a57600080fd5b506101dc610239366004613658565b610a11565b34801561024a57600080fd5b506005546101dc9060ff1681565b34801561026457600080fd5b506101f4610273366004613686565b610a85565b34801561028457600080fd5b506101f4610293366004613658565b610afc565b3480156102a457600080fd5b5060095461019f906001600160a01b031681565b3480156102c457600080fd5b5061021060065481565b3480156102da57600080fd5b506101f4610b92565b3480156102ef57600080fd5b506101dc6102fe366004613658565b610ba6565b34801561030f57600080fd5b5061035961031e366004613658565b6003602081905260009182526040909120805460018201546002830154929093015460ff8216936101009092046001600160a01b0316929085565b6040805195151586526001600160a01b039094166020860152928401919091526060830152608082015260a0016101b3565b34801561039757600080fd5b5061021060045481565b3480156103ad57600080fd5b506002546001600160a01b031661019f565b3480156103cb57600080fd5b5061019f7f000000000000000000000000000000000000000000000000000000000000000081565b3480156103ff57600080fd5b5061021060075481565b34801561041557600080fd5b506101f46104243660046136a3565b610bda565b34801561043557600080fd5b506101f46104443660046136c5565b610d3d565b34801561045557600080fd5b50610210610464366004613658565b60016020526000908152604090205481565b34801561048257600080fd5b50610210610f18565b34801561049757600080fd5b5061021060085481565b3480156104ad57600080fd5b50610210610fb7565b3480156104c257600080fd5b50610210610ff0565b3480156104d757600080fd5b506101f46104e6366004613686565b610ffa565b60408051602081018390526000918291016040516020818303038152906040529050603361051a826000611073565b610524919061376d565b60ff16600114801561054f5750603361053e826001611073565b610548919061376d565b60ff166003145b1561055d5750600192915050565b603361056a826002611073565b610574919061376d565b60ff16600114801561059f5750603361058e826003611073565b610598919061376d565b60ff166003145b156105ad5750600192915050565b60336105ba826004611073565b6105c4919061376d565b60ff1660011480156105ef575060336105de826005611073565b6105e8919061376d565b60ff166003145b156105fd5750600192915050565b50600092915050565b6009546001600160a01b03166106595760405162461bcd60e51b8152602060048201526013602482015272139195081b9bdd081a5b9a5d1a585b1a5e9959606a1b60448201526064015b60405180910390fd5b60055460ff161561069c5760405162461bcd60e51b815260206004820152600d60248201526c10ce8811d85b5948195b991959609a1b6044820152606401610650565b600034116106dd5760405162461bcd60e51b815260206004820152600e60248201526d10ce88139bc8115512081cd95b9d60921b6044820152606401610650565b60006106e7610f18565b9050803410156107325760405162461bcd60e51b815260206004820152601660248201527510ce88139bdd08195b9bdd59da08115512081cd95b9d60521b6044820152606401610650565b600061074c6040518060200160405280600081525061111c565b60048054919250600061075e8361378f565b9190505550600061076d610ff0565b60085490915061077d908261121d565b60089081556000838152600360205260408120805460016001600160a81b031990911661010033021781178255810186905591546002909201919091556001600160a01b037f0000000000000000000000000000000000000000000000000000000000000000166107fb6103e86107f5876032611230565b9061123c565b604051600081818185875af1925050503d8060008114610837576040519150601f19603f3d011682016040523d82523d6000602084013e61083c565b606091505b5050809150508061088f5760405162461bcd60e51b815260206004820152601960248201527f556e61626c6520746f2073656e6420746f2063726561746f72000000000000006044820152606401610650565b6001600160a01b037f0000000000000000000000000000000000000000000000000000000000000000166108ca6103e86107f5876096611230565b604051600081818185875af1925050503d8060008114610906576040519150601f19603f3d011682016040523d82523d6000602084013e61090b565b606091505b5050809150508061095e5760405162461bcd60e51b815260206004820152601960248201527f556e61626c6520746f2073656e6420746f2063686172697479000000000000006044820152606401610650565b600061096a3486611248565b90508015610a0a5760405133908290600081818185875af1925050503d80600081146109b2576040519150601f19603f3d011682016040523d82523d6000602084013e6109b7565b606091505b50508092505081610a0a5760405162461bcd60e51b815260206004820152601a60248201527f556e61626c6520746f2073656e6420627566666572206261636b0000000000006044820152606401610650565b5050505050565b6040805160208101839052600091829101604051602081830303815290604052905060005b6006811015610a7b576033610a4b8383611073565b610a55919061376d565b60ff16600503610a69575060019392505050565b80610a738161378f565b915050610a36565b5060009392505050565b610a8d611254565b6009546001600160a01b031615610ada5760405162461bcd60e51b8152602060048201526011602482015270105b1c9958591e481a5b9a5d1a585d1959607a1b6044820152606401610650565b600980546001600160a01b0319166001600160a01b0392909216919091179055565b6009546001600160a01b0316610b4a5760405162461bcd60e51b8152602060048201526013602482015272139195081b9bdd081a5b9a5d1a585b1a5e9959606a1b6044820152606401610650565b6000610b646040518060200160405280600081525061111c565b60009081526003602081905260409091208054610100600160a81b0319163361010002178155019190915550565b610b9a611254565b610ba460006112ae565b565b60008181548110610bb657600080fd5b9060005260206000209060209182820401919006915054906101000a900460ff1681565b610be2611254565b8115801590610bf057508015155b610c475760405162461bcd60e51b815260206004820152602260248201527f43757276653a204d756c7469706c696572732063616e6e6f74206265207a6572604482015261379760f11b6064820152608401610650565b81600211158015610c59575060088211155b610cbc5760405162461bcd60e51b815260206004820152602e60248201527f43757276653a20466c6167206d756c7469706c696572206d757374206265206260448201526d0cae8eecacadc406440c2dcc840760931b6064820152608401610650565b80600511158015610cce575060288111155b610d325760405162461bcd60e51b815260206004820152602f60248201527f43757276653a2052617265206d756c7469706c696572206d757374206265206260448201526e065747765656e203520616e6420343608c1b6064820152608401610650565b600691909155600755565b336001600160a01b037f00000000000000000000000000000000000000000000000000000000000000001614610da55760405162461bcd60e51b815260206004820152600d60248201526c37b7363c9037b832b930ba37b960991b6044820152606401610650565b6000610db382840184613817565b91505060008082806020019051810190610dcd91906138f5565b9150915060008585604051610de3929190613950565b6040805191829003909120600085815260016020529182205482549193508314919085908110610e1557610e15613960565b90600052602060002090602091828204019190069054906101000a900460ff16610e815760405162461bcd60e51b815260206004820152601c60248201527f726571756573742066756c66696c6c6564206f72206d697373696e67000000006044820152606401610650565b8015610f0e5760408051602081018a905230918101919091524660608201526080810185905260a0016040516020818303038152906040528051906020012060001c9750610ed0888585611300565b6000808581548110610ee457610ee4613960565b90600052602060002090602091828204019190066101000a81548160ff0219169083151502179055505b5050505050505050565b6000610fb2610fad610f2f655af3107a40006117f0565b610f6c61400160f01b610fa8610f4a613fff60f01b83611857565b610f6c610fa3610f9a610f71610f616004546117f0565b610f6c6004546117f0565b611869565b610f956f1ffd952e6c05810328b4133f6557300560811b630802249f60e31b611869565b611af4565b600160ff1b1890565b611d99565b611dc0565b61218a565b905090565b600080610fc2610f18565b9050610fe06103e86107f5610fd96032609661121d565b8490611230565b610fea9082613976565b92915050565b6000610fb2610fb7565b611002611254565b6001600160a01b0381166110675760405162461bcd60e51b815260206004820152602660248201527f4f776e61626c653a206e6577206f776e657220697320746865207a65726f206160448201526564647265737360d01b6064820152608401610650565b611070816112ae565b50565b600081611081816001613989565b10156110c25760405162461bcd60e51b815260206004820152601060248201526f746f55696e74385f6f766572666c6f7760801b6044820152606401610650565b6110cd826001613989565b835110156111135760405162461bcd60e51b8152602060048201526013602482015272746f55696e74385f6f75744f66426f756e647360681b6044820152606401610650565b50016001015190565b600080546001808201808455838052919290918390811061113f5761113f613960565b90600052602060002090602091828204019190066101000a81548160ff0219169083151502179055506000818360405160200161117d92919061399c565b6040516020818303038152906040529050600061119861220d565b9050600081836040516020016111af92919061399c565b60408051601f198184030181528282528051602080830191909120600089815260019092529290208290559250907fd91fc3685b930310b008ec37d2334870cab88a023ed8cc628a2e2ccd4e55d2029061120c908590879061399c565b60405180910390a150505050919050565b60006112298284613989565b9392505050565b600061122982846139d6565b600061122982846139ed565b60006112298284613976565b6002546001600160a01b03163314610ba45760405162461bcd60e51b815260206004820181905260248201527f4f776e61626c653a2063616c6c6572206973206e6f7420746865206f776e65726044820152606401610650565b600280546001600160a01b038381166001600160a01b0319831681179093556040519116919082907f8be0079c531659141344cd1fd0a4f28419497f9722a3daafe3b4186f6b6457e090600090a35050565b60008281526003602052604090205460ff16156113f0576009546000838152600360205260408082205490516340c10f1960e01b81526001600160a01b036101009092048216600482015260248101879052919216906340c10f19906044016020604051808303816000875af115801561137e573d6000803e3d6000fd5b505050506040513d601f19601f820116820180604052508101906113a29190613a01565b6000848152600360205260408082206002810154600190910154915193945092909184917f488bbf7ce8682b98371a0bb07d4e838ce2e533a907ceda8ac6ee658fdbd162e09190a450505050565b60008281526003602081905260408220015461140b81610a11565b1561142b5761142460075461141e610fb7565b90611230565b9150611622565b611434816104eb565b156114475761142460065461141e610fb7565b6000600854116114915760405162461bcd60e51b81526020600482015260156024820152740526573657276652073686f756c64206265203e203605c1b6044820152606401610650565b60095460405163719b7c1d60e01b8152600481018790526000916001600160a01b03169063719b7c1d90602401600060405180830381865afa1580156114db573d6000803e3d6000fd5b505050506040513d6000823e601f3d908101601f191682016040526115039190810190613a1a565b60095460405163719b7c1d60e01b8152600481018590529192506000916001600160a01b039091169063719b7c1d90602401600060405180830381865afa158015611552573d6000803e3d6000fd5b505050506040513d6000823e601f3d908101601f1916820160405261157a9190810190613a1a565b90508060405160200161158d9190613a6b565b60405160208183030381529060405280519060200120826040516020016115b49190613a6b565b604051602081830303815290604052805190602001200361161f576008546005805460ff191660019081179091556040519081529094508490889085907f02febe486e867135ad8e49bc98d0bc2cedebf512a306de0112042984197ede219060200160405180910390a45b50505b60095460008581526003602052604090819020549051632770a7eb60e21b81526001600160a01b036101009092048216600482015260248101849052911690639dc29fac90604401600060405180830381600087803b15801561168457600080fd5b505af1158015611698573d6000803e3d6000fd5b5050600480549250905060006116ad83613a87565b91905055508185827f02febe486e867135ad8e49bc98d0bc2cedebf512a306de0112042984197ede2160006040516116e9911515815260200190565b60405180910390a46008546116fe9083611248565b6008556000848152600360205260408082205490516101009091046001600160a01b031690849060006040518083038185875af1925050503d8060008114611762576040519150601f19603f3d011682016040523d82523d6000602084013e611767565b606091505b50509050806117b85760405162461bcd60e51b815260206004820152601860248201527f556e61626c6520746f2073656e64206275726e507269636500000000000000006044820152606401610650565b600854604051849084907f82ac44fe03cbf84203fdc07400a8a763498cf2ccaa9788e23b09d56f4fc85f7290600090a4505050505050565b60008160000361180257506000919050565b81600061180e82612264565b90506070811015611827578060700382901b915061183a565b607081111561183a576070810382901c91505b613fff0160701b6001600160701b03919091161760801b92915050565b600061122983600160ff1b8418611dc0565b6000617fff60f084811c8216919084901c8116908290036119195780617fff036118e4576001600160801b0319808516908616036118b257505050600160ff1b81168218610fea565b6001600160801b031985851816600160ff1b036118d457505050818117610fea565b5061ffff60ef1b9150610fea9050565b600160801b600160ff1b038416600003611908575061ffff60ef1b9150610fea9050565b505050600160ff1b81168218610fea565b80617fff0361195757600160801b600160ff1b038516600003611946575061ffff60ef1b9150610fea9050565b505050600160ff1b82168118610fea565b6001600160701b03608086901c166000839003611977576001925061197e565b600160701b175b6001600160701b03608086901c16600083900361199e57600192506119a5565b600160701b175b8082029150816000036119d757600160ff1b878718166119c65760006119cc565b600160ff1b5b945050505050610fea565b928201926000600160e11b831015611a0a57600160e01b831015611a03576119fe83612264565b611a0d565b60e0611a0d565b60e15b90506140708186011015611a28576000945060009250611ac5565b6140e08186011015611a6b57614070851015611a4d57846140700383901c9250611a62565b614070851115611a6257614070850383901b92505b60009450611ac5565b61c0dd8186011115611a8557617fff945060009250611ac5565b6070811115611a9c576070810383901c9250611aaf565b6070811015611aaf578060700383901b92505b6001600160701b03831692506140df8186010394505b82607086901b888a186001607f1b60801b1660801c6001600160801b0316171760801b95505050505050610fea565b6000617fff60f084811c8216919084901c811690829003611b285780617fff03611908575061ffff60ef1b9150610fea9050565b80617fff03611b6b576dffffffffffffffffffffffffffff60801b841615611b5a575061ffff60ef1b9150610fea9050565b505050808218600160ff1b16610fea565b600160801b600160ff1b038416600003611bbb57600160801b600160ff1b038516600003611ba3575061ffff60ef1b9150610fea9050565b505050808218600160ff1b16617fff60f01b17610fea565b6001600160701b03608085901c166000829003611bdb5760019150611be2565b600160701b175b6001600160701b03608087901c166000849003611c25578015611c20576000611c0a82612264565b6001955060e20393840160711901939190911b90505b611c2f565b600160701b1760721b5b818181611c3e57611c3e613741565b04905080600003611c5d57600160ff1b878718166119c65760006119cc565b6001606c1b811015611c7157611c71613a9e565b6000600160731b821015611cb057600160721b821015611ca557600160711b821015611c9e576070611ca8565b6071611ca8565b60725b60ff16611cb9565b611cb982612264565b905083614071018186011115611cd757617fff945060009150611d6a565b83818601613ffc011015611cf2576000945060009150611d6a565b83818601613f8c011015611d3f578385613ffc011115611d1d578385613ffc010382901b9150611d36565b8385613ffc011015611d3657613ffc8585030382901c91505b60009450611d6a565b6070811115611d52576070810382901c91505b6001600160701b038216915083818601613f8d010394505b81607086901b888a186001607f1b60801b1660801c6001600160801b0316171760801b95505050505050610fea565b6000610fea611dbb836f1fffb8aa3b295c17f0bbbe87fed0691d60811b611869565b612302565b6000617fff60f084811c8216919084901c811690829003611e0c5780617fff03611e02576001600160801b0319808516908616036118d4578492505050610fea565b8492505050610fea565b80617fff03611e1f578392505050610fea565b6001607f1b608086901c90811015906001600160701b03166000849003611e495760019350611e50565b600160701b175b6001607f1b608087901c90811015906001600160701b03166000859003611e7a5760019450611e81565b600160701b175b82600003611eb4576001600160801b03198816600160ff1b14611ea45787611ea7565b60005b9650505050505050610fea565b80600003611ed7576001600160801b03198916600160ff1b14611ea45788611ea7565b84860382151585151503611fe0576070811315611efd5789975050505050505050610fea565b6000811315611f0f5790811c90611f3e565b606f19811215611f285788975050505050505050610fea565b6000811215611f3e578060000384901c93508596505b92810192600160711b8410611f59576001968701969390931c925b86617fff03611f8a5784611f7257617fff60f01b611f7c565b6001600160f01b03195b975050505050505050610fea565b600160701b841015611f9f5760009650611fac565b6001600160701b03841693505b83607088901b86611fbe576000611fc4565b6001607f1b5b6001600160801b0316171760801b975050505050505050610fea565b6000811315611ffb57600184901b9350600187039650612012565b600081121561201257600182901b91506001860396505b60708113156120245760019150612071565b6001811315612041576001810360018303901c6001019150612071565b606f198112156120545760019350612071565b600019811215612071576001816000030360018503901c60010193505b81841061208257818403935061208b565b83820393508294505b836000036120a4575060009650610fea95505050505050565b60006120af85612264565b9050806071036120d457600185901c6001600160701b03169450600188019750612123565b607081101561211657607081900380891115612103578086901b6001600160701b031695508089039850612110565b600098600019019590951b945b50612123565b6001600160701b03851694505b87617fff03612155578561213c57617fff60f01b612146565b6001600160f01b03195b98505050505050505050610fea565b84607089901b8761216757600061216d565b6001607f1b5b6001600160801b0316171760801b98505050505050505050610fea565b6000617fff60f083901c16613fff8110156121a85750600092915050565b6001607f1b608084901c106121bc57600080fd5b6140fe8111156121cb57600080fd5b600160701b6001600160701b03608085901c161761406f8210156121f55761406f8290031c611229565b61406f8211156112295761406e1982011b9392505050565b60008061221e6364e6212742613976565b9050600061222d6003836139ed565b612238906001613989565b9050466001146122525761224d816001613989565b61225d565b61225d816004613989565b9250505090565b600080821161227257600080fd5b6000600160801b831061228757608092831c92015b600160401b831061229a57604092831c92015b64010000000083106122ae57602092831c92015b6201000083106122c057601092831c92015b61010083106122d157600892831c92015b601083106122e157600492831c92015b600483106122f157600292831c92015b60028310610fea5760010192915050565b60006001607f1b608083901c90811190617fff60f085901c8116916001600160701b0316908214801561233457508015155b15612348575061ffff60ef1b949350505050565b61400d82111561236e578261236257617fff60f01b612365565b60005b95945050505050565b613f7f8210156123875750613fff60f01b949350505050565b81600003612398576001915061239f565b600160701b175b613fef8211156123b557613fee1982011b6123c7565b613fef8210156123c757613fef8290031c5b8280156123d8575061203760811b81115b156123e857506000949350505050565b821580156124075750713fffffffffffffffffffffffffffffffffff81115b1561241b5750617fff60f01b949350505050565b6001600160801b0381169060801c83801561243557508115155b15612441579019906001015b6001607f1b828116156124655770016a09e667f3bcc908b2fb1366ea957d3e0260801c5b6001607e1b831615612488577001306fe0a31b7152de8d5a46305c85edec0260801c5b6001607d1b8316156124ab577001172b83c7d517adcdf7c8c50eb14a791f0260801c5b6001607c1b8316156124ce5770010b5586cf9890f6298b92b71842a983630260801c5b6001607b1b8316156124f1577001059b0d31585743ae7c548eb68ca417fd0260801c5b6001607a1b83161561251457700102c9a3e778060ee6f7caca4f7a29bde80260801c5b600160791b8316156125375770010163da9fb33356d84a66ae336dcdfa3f0260801c5b600160781b83161561255a57700100b1afa5abcbed6129ab13ec11dc95430260801c5b600160771b83161561257d5770010058c86da1c09ea1ff19d294cf2f679b0260801c5b600160761b8316156125a0577001002c605e2e8cec506d21bfc89a23a00f0260801c5b600160751b8316156125c357700100162f3904051fa128bca9c55c31e5df0260801c5b600160741b8316156125e6577001000b175effdc76ba38e31671ca9397250260801c5b600160731b83161561260957700100058ba01fb9f96d6cacd4b180917c3d0260801c5b600160721b83161561262c5770010002c5cc37da9491d0985c348c68e7b30260801c5b600160711b83161561264f577001000162e525ee054754457d59952920260260801c5b600160701b8316156126725770010000b17255775c040618bf4a4ade83fc0260801c5b6001606f1b831615612695577001000058b91b5bc9ae2eed81e9b7d4cfab0260801c5b6001606e1b8316156126b857700100002c5c89d5ec6ca4d7c8acc017b7c90260801c5b6001606d1b8316156126db5770010000162e43f4f831060e02d839a9d16d0260801c5b6001606c1b8316156126fe57700100000b1721bcfc99d9f890ea069117630260801c5b6001606b1b8316156127215770010000058b90cf1e6d97f9ca14dbcc16280260801c5b6001606a1b831615612744577001000002c5c863b73f016468f6bac5ca2b0260801c5b600160691b83161561276757700100000162e430e5a18f6119e3c02282a50260801c5b600160681b83161561278a577001000000b1721835514b86e6d96efd1bfe0260801c5b600160671b8316156127ad57700100000058b90c0b48c6be5df846c5b2ef0260801c5b600160661b8316156127d05770010000002c5c8601cc6b9e94213c72737a0260801c5b600160651b8316156127f3577001000000162e42fff037df38aa2b219f060260801c5b600160641b8316156128165770010000000b17217fba9c739aa5819f44f90260801c5b600160631b831615612839577001000000058b90bfcdee5acd3c1cedc8230260801c5b600160621b83161561285c57700100000002c5c85fe31f35a6a30da1be500260801c5b600160611b83161561287f5770010000000162e42ff0999ce3541b9fffcf0260801c5b600160601b8316156128a257700100000000b17217f80f4ef5aadda455540260801c5b6001605f1b8316156128c55770010000000058b90bfbf8479bd5a81b51ad0260801c5b6001605e1b8316156128e8577001000000002c5c85fdf84bd62ae30a74cc0260801c5b6001605d1b83161561290b57700100000000162e42fefb2fed257559bdaa0260801c5b6001605c1b83161561292e577001000000000b17217f7d5a7716bba4a9ae0260801c5b6001605b1b83161561295157700100000000058b90bfbe9ddbac5e109cce0260801c5b6001605a1b8316156129745770010000000002c5c85fdf4b15de6f17eb0d0260801c5b600160591b831615612997577001000000000162e42fefa494f1478fde050260801c5b600160581b8316156129ba5770010000000000b17217f7d20cf927c8e94c0260801c5b600160571b8316156129dd577001000000000058b90bfbe8f71cb4e4b33d0260801c5b600160561b831615612a0057700100000000002c5c85fdf477b662b269450260801c5b600160551b831615612a235770010000000000162e42fefa3ae53369388c0260801c5b600160541b831615612a4657700100000000000b17217f7d1d351a389d400260801c5b600160531b831615612a695770010000000000058b90bfbe8e8b2d3d4ede0260801c5b600160521b831615612a8c577001000000000002c5c85fdf4741bea6e77e0260801c5b600160511b831615612aaf57700100000000000162e42fefa39fe95583c20260801c5b600160501b831615612ad2577001000000000000b17217f7d1cfb72b45e10260801c5b6980000000000000000000831615612afb57700100000000000058b90bfbe8e7cc35c3f00260801c5b6940000000000000000000831615612b245770010000000000002c5c85fdf473e242ea380260801c5b6920000000000000000000831615612b4d577001000000000000162e42fefa39f02b772c0260801c5b6910000000000000000000831615612b765770010000000000000b17217f7d1cf7d83c1a0260801c5b6908000000000000000000831615612b9f577001000000000000058b90bfbe8e7bdcbe2e0260801c5b6904000000000000000000831615612bc857700100000000000002c5c85fdf473dea871f0260801c5b6902000000000000000000831615612bf15770010000000000000162e42fefa39ef44d910260801c5b6901000000000000000000831615612c1a57700100000000000000b17217f7d1cf79e9490260801c5b68800000000000000000831615612c425770010000000000000058b90bfbe8e7bce5440260801c5b68400000000000000000831615612c6a577001000000000000002c5c85fdf473de6eca0260801c5b68200000000000000000831615612c9257700100000000000000162e42fefa39ef366f0260801c5b68100000000000000000831615612cba577001000000000000000b17217f7d1cf79afa0260801c5b68080000000000000000831615612ce257700100000000000000058b90bfbe8e7bcd6d0260801c5b68040000000000000000831615612d0a5770010000000000000002c5c85fdf473de6b20260801c5b68020000000000000000831615612d32577001000000000000000162e42fefa39ef3580260801c5b600160401b831615612d555770010000000000000000b17217f7d1cf79ab0260801c5b678000000000000000831615612d7c577001000000000000000058b90bfbe8e7bcd50260801c5b674000000000000000831615612da357700100000000000000002c5c85fdf473de6a0260801c5b672000000000000000831615612dca5770010000000000000000162e42fefa39ef340260801c5b671000000000000000831615612df157700100000000000000000b17217f7d1cf7990260801c5b670800000000000000831615612e185770010000000000000000058b90bfbe8e7bcc0260801c5b670400000000000000831615612e3f577001000000000000000002c5c85fdf473de50260801c5b670200000000000000831615612e6657700100000000000000000162e42fefa39ef20260801c5b670100000000000000831615612e8d577001000000000000000000b17217f7d1cf780260801c5b6680000000000000831615612eb357700100000000000000000058b90bfbe8e7bb0260801c5b6640000000000000831615612ed95770010000000000000000002c5c85fdf473dd0260801c5b6620000000000000831615612eff577001000000000000000000162e42fefa39ee0260801c5b6610000000000000831615612f255770010000000000000000000b17217f7d1cf60260801c5b6608000000000000831615612f4b577001000000000000000000058b90bfbe8e7a0260801c5b6604000000000000831615612f7157700100000000000000000002c5c85fdf473c0260801c5b6602000000000000831615612f975770010000000000000000000162e42fefa39d0260801c5b6601000000000000831615612fbd57700100000000000000000000b17217f7d1ce0260801c5b65800000000000831615612fe25770010000000000000000000058b90bfbe8e60260801c5b65400000000000831615613007577001000000000000000000002c5c85fdf4720260801c5b6520000000000083161561302c57700100000000000000000000162e42fefa380260801c5b65100000000000831615613051577001000000000000000000000b17217f7d1b0260801c5b6508000000000083161561307657700100000000000000000000058b90bfbe8d0260801c5b6504000000000083161561309b5770010000000000000000000002c5c85fdf460260801c5b650200000000008316156130c0577001000000000000000000000162e42fefa20260801c5b650100000000008316156130e55770010000000000000000000000b17217f7d00260801c5b648000000000831615613109577001000000000000000000000058b90bfbe70260801c5b64400000000083161561312d57700100000000000000000000002c5c85fdf30260801c5b6420000000008316156131515770010000000000000000000000162e42fef90260801c5b64100000000083161561317557700100000000000000000000000b17217f7c0260801c5b6408000000008316156131995770010000000000000000000000058b90bfbd0260801c5b6404000000008316156131bd577001000000000000000000000002c5c85fde0260801c5b6402000000008316156131e157700100000000000000000000000162e42fee0260801c5b640100000000831615613205577001000000000000000000000000b17217f60260801c5b638000000083161561322857700100000000000000000000000058b90bfa0260801c5b634000000083161561324b5770010000000000000000000000002c5c85fc0260801c5b632000000083161561326e577001000000000000000000000000162e42fd0260801c5b63100000008316156132915770010000000000000000000000000b17217e0260801c5b63080000008316156132b4577001000000000000000000000000058b90be0260801c5b63040000008316156132d757700100000000000000000000000002c5c85e0260801c5b63020000008316156132fa5770010000000000000000000000000162e42e0260801c5b630100000083161561331d57700100000000000000000000000000b172160260801c5b6280000083161561333f5770010000000000000000000000000058b90a0260801c5b62400000831615613361577001000000000000000000000000002c5c840260801c5b6220000083161561338357700100000000000000000000000000162e410260801c5b621000008316156133a5577001000000000000000000000000000b17200260801c5b620800008316156133c757700100000000000000000000000000058b8f0260801c5b620400008316156133e95770010000000000000000000000000002c5c70260801c5b6202000083161561340b577001000000000000000000000000000162e30260801c5b6201000083161561342d5770010000000000000000000000000000b1710260801c5b61800083161561344e577001000000000000000000000000000058b80260801c5b61400083161561346f57700100000000000000000000000000002c5b0260801c5b6120008316156134905770010000000000000000000000000000162d0260801c5b6110008316156134b157700100000000000000000000000000000b160260801c5b6108008316156134d25770010000000000000000000000000000058a0260801c5b6104008316156134f3577001000000000000000000000000000002c40260801c5b610200831615613514577001000000000000000000000000000001610260801c5b610100831615613535577001000000000000000000000000000000b00260801c5b6080831615613555577001000000000000000000000000000000570260801c5b60408316156135755770010000000000000000000000000000002b0260801c5b6020831615613595577001000000000000000000000000000000150260801c5b60108316156135b55770010000000000000000000000000000000a0260801c5b60088316156135d5577001000000000000000000000000000000040260801c5b60048316156135f5577001000000000000000000000000000000010260801c5b8461361657600f81901c6001600160701b03169050613fff82019150613645565b613ffe821161363b57600f81901c6001600160701b0316905081613fff039150613645565b600091613fee19011c5b60709190911b1760801b95945050505050565b60006020828403121561366a57600080fd5b5035919050565b6001600160a01b038116811461107057600080fd5b60006020828403121561369857600080fd5b813561122981613671565b600080604083850312156136b657600080fd5b50508035926020909101359150565b6000806000604084860312156136da57600080fd5b83359250602084013567ffffffffffffffff808211156136f957600080fd5b818601915086601f83011261370d57600080fd5b81358181111561371c57600080fd5b87602082850101111561372e57600080fd5b6020830194508093505050509250925092565b634e487b7160e01b600052601260045260246000fd5b634e487b7160e01b600052601160045260246000fd5b600060ff83168061378057613780613741565b8060ff84160491505092915050565b6000600182016137a1576137a1613757565b5060010190565b634e487b7160e01b600052604160045260246000fd5b604051601f8201601f1916810167ffffffffffffffff811182821017156137e7576137e76137a8565b604052919050565b600067ffffffffffffffff821115613809576138096137a8565b50601f01601f191660200190565b6000806040838503121561382a57600080fd5b82359150602083013567ffffffffffffffff81111561384857600080fd5b8301601f8101851361385957600080fd5b803561386c613867826137ef565b6137be565b81815286602083850101111561388157600080fd5b816020840160208301376000602083830101528093505050509250929050565b60005b838110156138bc5781810151838201526020016138a4565b50506000910152565b60006138d3613867846137ef565b90508281528383830111156138e757600080fd5b6112298360208301846138a1565b6000806040838503121561390857600080fd5b82519150602083015167ffffffffffffffff81111561392657600080fd5b8301601f8101851361393757600080fd5b613946858251602084016138c5565b9150509250929050565b8183823760009101908152919050565b634e487b7160e01b600052603260045260246000fd5b81810381811115610fea57610fea613757565b80820180821115610fea57610fea613757565b82815260406020820152600082518060408401526139c18160608501602087016138a1565b601f01601f1916919091016060019392505050565b8082028115828204841417610fea57610fea613757565b6000826139fc576139fc613741565b500490565b600060208284031215613a1357600080fd5b5051919050565b600060208284031215613a2c57600080fd5b815167ffffffffffffffff811115613a4357600080fd5b8201601f81018413613a5457600080fd5b613a63848251602084016138c5565b949350505050565b60008251613a7d8184602087016138a1565b9190910192915050565b600081613a9657613a96613757565b506000190190565b634e487b7160e01b600052600160045260246000fdfea2646970667358221220bc984cefddbe166292539ea228c8e5419136cb2b42e1c7c821817b514c5fae1264736f6c63430008130033",
  "devdoc": {
    "events": {
      "RequestedRandomness(uint256,bytes)": {
        "params": {
          "data": "Additional data associated with the request."
        }
      }
    },
    "kind": "dev",
    "methods": {
      "fulfillRandomness(uint256,bytes)": {
        "params": {
          "dataWithRound": "Additional data provided by Gelato VRF containing request details.",
          "randomness": "The random number generated by Gelato VRF."
        }
      },
      "owner()": {
        "details": "Returns the address of the current owner."
      },
      "renounceOwnership()": {
        "details": "Leaves the contract without owner. It will not be possible to call `onlyOwner` functions. Can only be called by the current owner. NOTE: Renouncing ownership will leave the contract without an owner, thereby disabling any functionality that is only available to the owner."
      },
      "transferOwnership(address)": {
        "details": "Transfers ownership of the contract to a new account (`newOwner`). Can only be called by the current owner."
      }
    },
    "version": 1
  },
  "userdoc": {
    "events": {
      "RequestedRandomness(uint256,bytes)": {
        "notice": "Event emitted when a randomness request is made."
      }
    },
    "kind": "user",
    "methods": {
      "fulfillRandomness(uint256,bytes)": {
        "notice": "Callback function used by Gelato VRF to return the random number. The randomness is derived by hashing the provided randomness with the request ID."
      }
    },
    "version": 1
  },
  "storageLayout": {
    "storage": [
      {
        "astId": 11414,
        "contract": "contracts/Curve.sol:Curve",
        "label": "requestPending",
        "offset": 0,
        "slot": "0",
        "type": "t_array(t_bool)dyn_storage"
      },
      {
        "astId": 11418,
        "contract": "contracts/Curve.sol:Curve",
        "label": "requestedHash",
        "offset": 0,
        "slot": "1",
        "type": "t_mapping(t_uint256,t_bytes32)"
      },
      {
        "astId": 7,
        "contract": "contracts/Curve.sol:Curve",
        "label": "_owner",
        "offset": 0,
        "slot": "2",
        "type": "t_address"
      },
      {
        "astId": 9315,
        "contract": "contracts/Curve.sol:Curve",
        "label": "requests",
        "offset": 0,
        "slot": "3",
        "type": "t_mapping(t_uint256,t_struct(Request)9310_storage)"
      },
      {
        "astId": 9317,
        "contract": "contracts/Curve.sol:Curve",
        "label": "nftsCount",
        "offset": 0,
        "slot": "4",
        "type": "t_uint256"
      },
      {
        "astId": 9319,
        "contract": "contracts/Curve.sol:Curve",
        "label": "gameEnded",
        "offset": 0,
        "slot": "5",
        "type": "t_bool"
      },
      {
        "astId": 9321,
        "contract": "contracts/Curve.sol:Curve",
        "label": "ukrainianFlagPrizeMultiplier",
        "offset": 0,
        "slot": "6",
        "type": "t_uint256"
      },
      {
        "astId": 9323,
        "contract": "contracts/Curve.sol:Curve",
        "label": "rarePrizeMultiplier",
        "offset": 0,
        "slot": "7",
        "type": "t_uint256"
      },
      {
        "astId": 9337,
        "contract": "contracts/Curve.sol:Curve",
        "label": "reserve",
        "offset": 0,
        "slot": "8",
        "type": "t_uint256"
      },
      {
        "astId": 9346,
        "contract": "contracts/Curve.sol:Curve",
        "label": "nft",
        "offset": 0,
        "slot": "9",
        "type": "t_contract(ERC721)11398"
      }
    ],
    "types": {
      "t_address": {
        "encoding": "inplace",
        "label": "address",
        "numberOfBytes": "20"
      },
      "t_array(t_bool)dyn_storage": {
        "base": "t_bool",
        "encoding": "dynamic_array",
        "label": "bool[]",
        "numberOfBytes": "32"
      },
      "t_bool": {
        "encoding": "inplace",
        "label": "bool",
        "numberOfBytes": "1"
      },
      "t_bytes32": {
        "encoding": "inplace",
        "label": "bytes32",
        "numberOfBytes": "32"
      },
      "t_contract(ERC721)11398": {
        "encoding": "inplace",
        "label": "contract ERC721",
        "numberOfBytes": "20"
      },
      "t_mapping(t_uint256,t_bytes32)": {
        "encoding": "mapping",
        "key": "t_uint256",
        "label": "mapping(uint256 => bytes32)",
        "numberOfBytes": "32",
        "value": "t_bytes32"
      },
      "t_mapping(t_uint256,t_struct(Request)9310_storage)": {
        "encoding": "mapping",
        "key": "t_uint256",
        "label": "mapping(uint256 => struct Curve.Request)",
        "numberOfBytes": "32",
        "value": "t_struct(Request)9310_storage"
      },
      "t_struct(Request)9310_storage": {
        "encoding": "inplace",
        "label": "struct Curve.Request",
        "members": [
          {
            "astId": 9301,
            "contract": "contracts/Curve.sol:Curve",
            "label": "isMint",
            "offset": 0,
            "slot": "0",
            "type": "t_bool"
          },
          {
            "astId": 9303,
            "contract": "contracts/Curve.sol:Curve",
            "label": "_address",
            "offset": 1,
            "slot": "0",
            "type": "t_address"
          },
          {
            "astId": 9305,
            "contract": "contracts/Curve.sol:Curve",
            "label": "_price",
            "offset": 0,
            "slot": "1",
            "type": "t_uint256"
          },
          {
            "astId": 9307,
            "contract": "contracts/Curve.sol:Curve",
            "label": "_reserve",
            "offset": 0,
            "slot": "2",
            "type": "t_uint256"
          },
          {
            "astId": 9309,
            "contract": "contracts/Curve.sol:Curve",
            "label": "_tokenId",
            "offset": 0,
            "slot": "3",
            "type": "t_uint256"
          }
        ],
        "numberOfBytes": "128"
      },
      "t_uint256": {
        "encoding": "inplace",
        "label": "uint256",
        "numberOfBytes": "32"
      }
    }
  }
}