{
  "address": "0x56b4F99E90D830e766773A8e66B3f0a5bAb8200d",
  "abi": [
    {
      "inputs": [
        {
          "internalType": "string",
          "name": "name_",
          "type": "string"
        },
        {
          "internalType": "string",
          "name": "symbol_",
          "type": "string"
        },
        {
          "internalType": "string",
          "name": "baseURI_",
          "type": "string"
        },
        {
          "internalType": "address",
          "name": "_curve",
          "type": "address"
        }
      ],
      "stateMutability": "nonpayable",
      "type": "constructor"
    },
    {
      "anonymous": false,
      "inputs": [
        {
          "indexed": true,
          "internalType": "address",
          "name": "owner",
          "type": "address"
        },
        {
          "indexed": true,
          "internalType": "address",
          "name": "approved",
          "type": "address"
        },
        {
          "indexed": true,
          "internalType": "uint256",
          "name": "tokenId",
          "type": "uint256"
        }
      ],
      "name": "Approval",
      "type": "event"
    },
    {
      "anonymous": false,
      "inputs": [
        {
          "indexed": true,
          "internalType": "address",
          "name": "owner",
          "type": "address"
        },
        {
          "indexed": true,
          "internalType": "address",
          "name": "operator",
          "type": "address"
        },
        {
          "indexed": false,
          "internalType": "bool",
          "name": "approved",
          "type": "bool"
        }
      ],
      "name": "ApprovalForAll",
      "type": "event"
    },
    {
      "anonymous": false,
      "inputs": [
        {
          "indexed": true,
          "internalType": "uint256",
          "name": "tokenId",
          "type": "uint256"
        },
        {
          "indexed": true,
          "internalType": "address",
          "name": "owner",
          "type": "address"
        },
        {
          "indexed": false,
          "internalType": "uint256",
          "name": "supplyAfterBurn",
          "type": "uint256"
        }
      ],
      "name": "Burned",
      "type": "event"
    },
    {
      "anonymous": false,
      "inputs": [
        {
          "indexed": true,
          "internalType": "uint256",
          "name": "tokenId",
          "type": "uint256"
        },
        {
          "indexed": false,
          "internalType": "uint256",
          "name": "totalEverMinted",
          "type": "uint256"
        },
        {
          "indexed": true,
          "internalType": "uint256",
          "name": "randomness",
          "type": "uint256"
        },
        {
          "indexed": true,
          "internalType": "address",
          "name": "to",
          "type": "address"
        },
        {
          "indexed": false,
          "internalType": "uint256",
          "name": "supplyAfterMint",
          "type": "uint256"
        }
      ],
      "name": "Minted",
      "type": "event"
    },
    {
      "anonymous": false,
      "inputs": [
        {
          "indexed": false,
          "internalType": "string",
          "name": "baseURI_",
          "type": "string"
        }
      ],
      "name": "NewBaseURI",
      "type": "event"
    },
    {
      "anonymous": false,
      "inputs": [
        {
          "indexed": true,
          "internalType": "address",
          "name": "previousOwner",
          "type": "address"
        },
        {
          "indexed": true,
          "internalType": "address",
          "name": "newOwner",
          "type": "address"
        }
      ],
      "name": "OwnershipTransferred",
      "type": "event"
    },
    {
      "anonymous": false,
      "inputs": [
        {
          "indexed": true,
          "internalType": "address",
          "name": "from",
          "type": "address"
        },
        {
          "indexed": true,
          "internalType": "address",
          "name": "to",
          "type": "address"
        },
        {
          "indexed": true,
          "internalType": "uint256",
          "name": "tokenId",
          "type": "uint256"
        }
      ],
      "name": "Transfer",
      "type": "event"
    },
    {
      "inputs": [
        {
          "internalType": "address",
          "name": "to",
          "type": "address"
        },
        {
          "internalType": "uint256",
          "name": "tokenId",
          "type": "uint256"
        }
      ],
      "name": "approve",
      "outputs": [],
      "stateMutability": "nonpayable",
      "type": "function"
    },
    {
      "inputs": [
        {
          "internalType": "address",
          "name": "owner_",
          "type": "address"
        }
      ],
      "name": "balanceOf",
      "outputs": [
        {
          "internalType": "uint256",
          "name": "",
          "type": "uint256"
        }
      ],
      "stateMutability": "view",
      "type": "function"
    },
    {
      "inputs": [],
      "name": "baseURI",
      "outputs": [
        {
          "internalType": "string",
          "name": "",
          "type": "string"
        }
      ],
      "stateMutability": "view",
      "type": "function"
    },
    {
      "inputs": [
        {
          "internalType": "address",
          "name": "burner",
          "type": "address"
        },
        {
          "internalType": "uint256",
          "name": "tokenId",
          "type": "uint256"
        }
      ],
      "name": "burn",
      "outputs": [],
      "stateMutability": "nonpayable",
      "type": "function"
    },
    {
      "inputs": [],
      "name": "curve",
      "outputs": [
        {
          "internalType": "address",
          "name": "",
          "type": "address"
        }
      ],
      "stateMutability": "view",
      "type": "function"
    },
    {
      "inputs": [
        {
          "internalType": "uint256",
          "name": "_tokenId",
          "type": "uint256"
        }
      ],
      "name": "generateSVGofTokenById",
      "outputs": [
        {
          "internalType": "string",
          "name": "",
          "type": "string"
        }
      ],
      "stateMutability": "view",
      "type": "function"
    },
    {
      "inputs": [
        {
          "internalType": "uint256",
          "name": "tokenId",
          "type": "uint256"
        }
      ],
      "name": "getApproved",
      "outputs": [
        {
          "internalType": "address",
          "name": "",
          "type": "address"
        }
      ],
      "stateMutability": "view",
      "type": "function"
    },
    {
      "inputs": [
        {
          "internalType": "address",
          "name": "owner_",
          "type": "address"
        },
        {
          "internalType": "address",
          "name": "operator",
          "type": "address"
        }
      ],
      "name": "isApprovedForAll",
      "outputs": [
        {
          "internalType": "bool",
          "name": "",
          "type": "bool"
        }
      ],
      "stateMutability": "view",
      "type": "function"
    },
    {
      "inputs": [
        {
          "internalType": "address",
          "name": "to",
          "type": "address"
        },
        {
          "internalType": "uint256",
          "name": "randomness",
          "type": "uint256"
        }
      ],
      "name": "mint",
      "outputs": [
        {
          "internalType": "uint256",
          "name": "newTokenId",
          "type": "uint256"
        }
      ],
      "stateMutability": "nonpayable",
      "type": "function"
    },
    {
      "inputs": [],
      "name": "name",
      "outputs": [
        {
          "internalType": "string",
          "name": "",
          "type": "string"
        }
      ],
      "stateMutability": "view",
      "type": "function"
    },
    {
      "inputs": [],
      "name": "owner",
      "outputs": [
        {
          "internalType": "address",
          "name": "",
          "type": "address"
        }
      ],
      "stateMutability": "view",
      "type": "function"
    },
    {
      "inputs": [
        {
          "internalType": "uint256",
          "name": "tokenId",
          "type": "uint256"
        }
      ],
      "name": "ownerOf",
      "outputs": [
        {
          "internalType": "address",
          "name": "",
          "type": "address"
        }
      ],
      "stateMutability": "view",
      "type": "function"
    },
    {
      "inputs": [],
      "name": "renounceOwnership",
      "outputs": [],
      "stateMutability": "nonpayable",
      "type": "function"
    },
    {
      "inputs": [
        {
          "internalType": "address",
          "name": "from",
          "type": "address"
        },
        {
          "internalType": "address",
          "name": "to",
          "type": "address"
        },
        {
          "internalType": "uint256",
          "name": "tokenId",
          "type": "uint256"
        }
      ],
      "name": "safeTransferFrom",
      "outputs": [],
      "stateMutability": "nonpayable",
      "type": "function"
    },
    {
      "inputs": [
        {
          "internalType": "address",
          "name": "from",
          "type": "address"
        },
        {
          "internalType": "address",
          "name": "to",
          "type": "address"
        },
        {
          "internalType": "uint256",
          "name": "tokenId",
          "type": "uint256"
        },
        {
          "internalType": "bytes",
          "name": "_data",
          "type": "bytes"
        }
      ],
      "name": "safeTransferFrom",
      "outputs": [],
      "stateMutability": "nonpayable",
      "type": "function"
    },
    {
      "inputs": [
        {
          "internalType": "address",
          "name": "operator",
          "type": "address"
        },
        {
          "internalType": "bool",
          "name": "approved",
          "type": "bool"
        }
      ],
      "name": "setApprovalForAll",
      "outputs": [],
      "stateMutability": "nonpayable",
      "type": "function"
    },
    {
      "inputs": [
        {
          "internalType": "string",
          "name": "baseURI_",
          "type": "string"
        }
      ],
      "name": "setBaseURI",
      "outputs": [],
      "stateMutability": "nonpayable",
      "type": "function"
    },
    {
      "inputs": [
        {
          "internalType": "bytes4",
          "name": "interfaceId",
          "type": "bytes4"
        }
      ],
      "name": "supportsInterface",
      "outputs": [
        {
          "internalType": "bool",
          "name": "",
          "type": "bool"
        }
      ],
      "stateMutability": "view",
      "type": "function"
    },
    {
      "inputs": [],
      "name": "symbol",
      "outputs": [
        {
          "internalType": "string",
          "name": "",
          "type": "string"
        }
      ],
      "stateMutability": "view",
      "type": "function"
    },
    {
      "inputs": [
        {
          "internalType": "uint256",
          "name": "index",
          "type": "uint256"
        }
      ],
      "name": "tokenByIndex",
      "outputs": [
        {
          "internalType": "uint256",
          "name": "",
          "type": "uint256"
        }
      ],
      "stateMutability": "view",
      "type": "function"
    },
    {
      "inputs": [
        {
          "internalType": "address",
          "name": "owner_",
          "type": "address"
        },
        {
          "internalType": "uint256",
          "name": "index",
          "type": "uint256"
        }
      ],
      "name": "tokenOfOwnerByIndex",
      "outputs": [
        {
          "internalType": "uint256",
          "name": "",
          "type": "uint256"
        }
      ],
      "stateMutability": "view",
      "type": "function"
    },
    {
      "inputs": [
        {
          "internalType": "uint256",
          "name": "tokenId",
          "type": "uint256"
        }
      ],
      "name": "tokenURI",
      "outputs": [
        {
          "internalType": "string",
          "name": "",
          "type": "string"
        }
      ],
      "stateMutability": "view",
      "type": "function"
    },
    {
      "inputs": [],
      "name": "totalEverMinted",
      "outputs": [
        {
          "internalType": "uint256",
          "name": "",
          "type": "uint256"
        }
      ],
      "stateMutability": "view",
      "type": "function"
    },
    {
      "inputs": [],
      "name": "totalSupply",
      "outputs": [
        {
          "internalType": "uint256",
          "name": "",
          "type": "uint256"
        }
      ],
      "stateMutability": "view",
      "type": "function"
    },
    {
      "inputs": [
        {
          "internalType": "address",
          "name": "from",
          "type": "address"
        },
        {
          "internalType": "address",
          "name": "to",
          "type": "address"
        },
        {
          "internalType": "uint256",
          "name": "tokenId",
          "type": "uint256"
        }
      ],
      "name": "transferFrom",
      "outputs": [],
      "stateMutability": "nonpayable",
      "type": "function"
    },
    {
      "inputs": [
        {
          "internalType": "address",
          "name": "newOwner",
          "type": "address"
        }
      ],
      "name": "transferOwnership",
      "outputs": [],
      "stateMutability": "nonpayable",
      "type": "function"
    }
  ],
  "transactionHash": "0x1ee2b448fe3bf99b40a6cb192aeec5571ea067c14a7c0a4ff4be629cb96de145",
  "args": [
    "Freedom",
    "FREE",
    "test.com/",
    "0x69dAAf119439c1cc87143b3D3DD4276b3c8fB6C5"
  ],
  "solcInputHash": "84d36c6c7c12baea5b35d0f3a215b3e2",
  "bytecode": "0x60a06040523480156200001157600080fd5b5060405162002d9438038062002d9483398101604081905262000034916200048f565b620000466301ffc9a760e01b620002a1565b620000513362000325565b60086200005f8582620005d1565b5060096200006e8482620005d1565b50620000816380ac58cd60e01b620002a1565b62000093635b5e139f60e01b620002a1565b620000a563780e9d6360e01b620002a1565b620000b08262000377565b6001600160a01b038116608052600d80546001810182556000919091526040805180820190915260078152662330303941343960c81b602082015260008051602062002d74833981519152909101906200010b9082620005d1565b50600d80546001810182556000919091526040805180820190915260078152661198181aa1212160c91b602082015260008051602062002d74833981519152909101906200015a9082620005d1565b50600d80546001810182556000919091526040805180820190915260078152660234246304133360cc1b602082015260008051602062002d7483398151915290910190620001a99082620005d1565b50600d80546001810182556000919091526040805180820190915260078152660234646443530360cc1b602082015260008051602062002d7483398151915290910190620001f89082620005d1565b50600d80546001810182556000919091526040805180820190915260078152660233030303030360cc1b602082015260008051602062002d7483398151915290910190620002479082620005d1565b50600d805460018101825560009190915260408051808201909152600781526611b3333333333360c91b602082015260008051602062002d7483398151915290910190620002969082620005d1565b5050505050620006d2565b6001600160e01b03198082169003620003005760405162461bcd60e51b815260206004820152601c60248201527f4552433136353a20696e76616c696420696e7465726661636520696400000000604482015260640160405180910390fd5b6001600160e01b0319166000908152602081905260409020805460ff19166001179055565b600180546001600160a01b038381166001600160a01b0319831681179093556040519116919082907f8be0079c531659141344cd1fd0a4f28419497f9722a3daafe3b4186f6b6457e090600090a35050565b600b620003858282620005d1565b507f325d37e8fb549c86966f09bc3e6f62eb3afa93b255d6e3234338001f3d80bd8681604051620003b791906200069d565b60405180910390a150565b634e487b7160e01b600052604160045260246000fd5b60005b83811015620003f5578181015183820152602001620003db565b50506000910152565b600082601f8301126200041057600080fd5b81516001600160401b03808211156200042d576200042d620003c2565b604051601f8301601f19908116603f01168101908282118183101715620004585762000458620003c2565b816040528381528660208588010111156200047257600080fd5b62000485846020830160208901620003d8565b9695505050505050565b60008060008060808587031215620004a657600080fd5b84516001600160401b0380821115620004be57600080fd5b620004cc88838901620003fe565b95506020870151915080821115620004e357600080fd5b620004f188838901620003fe565b945060408701519150808211156200050857600080fd5b506200051787828801620003fe565b606087015190935090506001600160a01b03811681146200053757600080fd5b939692955090935050565b600181811c908216806200055757607f821691505b6020821081036200057857634e487b7160e01b600052602260045260246000fd5b50919050565b601f821115620005cc57600081815260208120601f850160051c81016020861015620005a75750805b601f850160051c820191505b81811015620005c857828155600101620005b3565b5050505b505050565b81516001600160401b03811115620005ed57620005ed620003c2565b6200060581620005fe845462000542565b846200057e565b602080601f8311600181146200063d5760008415620006245750858301515b600019600386901b1c1916600185901b178555620005c8565b600085815260208120601f198616915b828110156200066e578886015182559484019460019091019084016200064d565b50858210156200068d5787850151600019600388901b60f8161c191681555b5050505050600190811b01905550565b6020815260008251806020840152620006be816040850160208701620003d8565b601f01601f19169190910160400192915050565b608051612678620006fc600039600081816102ed0152818161066401526108e501526126786000f3fe608060405234801561001057600080fd5b506004361061018e5760003560e01c806370a08231116100de57806395d89b4111610097578063b88d4fde11610071578063b88d4fde1461036a578063c87b56dd1461037d578063e985e9c514610390578063f2fde38b146103a357600080fd5b806395d89b411461033c5780639dc29fac14610344578063a22cb4651461035757600080fd5b806370a08231146102cd578063715018a6146102e05780637165485d146102e8578063719b7c1d1461030f5780638da5cb5b14610322578063924808b41461033357600080fd5b80632f745c591161014b5780634f6ccce7116101255780634f6ccce71461028c57806355f804b31461029f5780636352211e146102b25780636c0360eb146102c557600080fd5b80632f745c591461025357806340c10f191461026657806342842e0e1461027957600080fd5b806301ffc9a71461019357806306fdde03146101d5578063081812fc146101ea578063095ea7b31461021557806318160ddd1461022a57806323b872dd14610240575b600080fd5b6101c06101a1366004611cb8565b6001600160e01b03191660009081526020819052604090205460ff1690565b60405190151581526020015b60405180910390f35b6101dd6103b6565b6040516101cc9190611d2c565b6101fd6101f8366004611d3f565b610448565b6040516001600160a01b0390911681526020016101cc565b610228610223366004611d74565b6104d5565b005b6102326105ea565b6040519081526020016101cc565b61022861024e366004611d9e565b6105fb565b610232610261366004611d74565b61062c565b610232610274366004611d74565b610657565b610228610287366004611d9e565b6107a4565b61023261029a366004611d3f565b6107bf565b6102286102ad366004611e66565b6107d5565b6101fd6102c0366004611d3f565b6107e9565b6101dd610811565b6102326102db366004611eaf565b610820565b6102286108ac565b6101fd7f000000000000000000000000000000000000000000000000000000000000000081565b6101dd61031d366004611d3f565b6108c0565b6001546001600160a01b03166101fd565b610232600c5481565b6101dd6108cb565b610228610352366004611d74565b6108da565b610228610365366004611eca565b610a0e565b610228610378366004611f06565b610acb565b6101dd61038b366004611d3f565b610b03565b6101c061039e366004611f82565b610c75565b6102286103b1366004611eaf565b610ca3565b6060600880546103c590611fb5565b80601f01602080910402602001604051908101604052809291908181526020018280546103f190611fb5565b801561043e5780601f106104135761010080835404028352916020019161043e565b820191906000526020600020905b81548152906001019060200180831161042157829003601f168201915b5050505050905090565b600061045382610d19565b6104b95760405162461bcd60e51b815260206004820152602c60248201527f4552433732313a20617070726f76656420717565727920666f72206e6f6e657860448201526b34b9ba32b73a103a37b5b2b760a11b60648201526084015b60405180910390fd5b506000908152600660205260409020546001600160a01b031690565b60006104e0826107e9565b9050806001600160a01b0316836001600160a01b03160361054d5760405162461bcd60e51b815260206004820152602160248201527f4552433732313a20617070726f76616c20746f2063757272656e74206f776e656044820152603960f91b60648201526084016104b0565b336001600160a01b038216148061056957506105698133610c75565b6105db5760405162461bcd60e51b815260206004820152603860248201527f4552433732313a20617070726f76652063616c6c6572206973206e6f74206f7760448201527f6e6572206e6f7220617070726f76656420666f7220616c6c000000000000000060648201526084016104b0565b6105e58383610d26565b505050565b60006105f66003610d94565b905090565b6106053382610d9f565b6106215760405162461bcd60e51b81526004016104b090611fef565b6105e5838383610e69565b6001600160a01b038216600090815260026020526040812061064e9083610fea565b90505b92915050565b6000336001600160a01b037f000000000000000000000000000000000000000000000000000000000000000016146106d15760405162461bcd60e51b815260206004820181905260248201527f46524545444f4d3a204d696e746572206973206e6f742074686520637572766560448201526064016104b0565b6000600c54838560405160200161070d93929190928352602083019190915260601b6bffffffffffffffffffffffff1916604082015260540190565b60408051601f1981840301815291905280516020909101209050806107328582610ff6565b6001600c60008282546107459190612056565b92505081905550846001600160a01b031684827f393cd7b3ace4802d7cab7785cdcbcb9afb3a046d34f1e1b3ba0060f9cffc2687600c546107846105ea565b6040805192835260208301919091520160405180910390a4949350505050565b6105e583838360405180602001604052806000815250610acb565b6000806107cd60038461110e565b509392505050565b6107dd61112a565b6107e681611184565b50565b60006106518260405180606001604052806029815260200161261a60299139600391906111cb565b6060600b80546103c590611fb5565b60006001600160a01b03821661088b5760405162461bcd60e51b815260206004820152602a60248201527f4552433732313a2062616c616e636520717565727920666f7220746865207a65604482015269726f206164647265737360b01b60648201526084016104b0565b6001600160a01b0382166000908152600260205260409020610651906111d8565b6108b461112a565b6108be60006111e2565b565b606061065182611234565b6060600980546103c590611fb5565b336001600160a01b037f000000000000000000000000000000000000000000000000000000000000000016146109525760405162461bcd60e51b815260206004820181905260248201527f46524545444f4d3a204275726e6572206973206e6f742074686520637572766560448201526064016104b0565b61095b816107e9565b6001600160a01b0316826001600160a01b0316146109bb5760405162461bcd60e51b815260206004820152601e60248201527f46524545444f4d3a204e6f742074686520636f7272656374206f776e6572000060448201526064016104b0565b6109c481611487565b816001600160a01b0316817f7a6396f9141e42bbd82eddb43e30077ef07aaafcd4ee3dfbd6adb1dca8f2445a6109f86105ea565b6040519081526020015b60405180910390a35050565b336001600160a01b03831603610a665760405162461bcd60e51b815260206004820152601960248201527f4552433732313a20617070726f766520746f2063616c6c65720000000000000060448201526064016104b0565b3360008181526007602090815260408083206001600160a01b03871680855290835292819020805460ff191686151590811790915590519081529192917f17307eab39ab6107e8899845ad3d59bd9653f200f220920489ca2b5937696c319101610a02565b610ad53383610d9f565b610af15760405162461bcd60e51b81526004016104b090611fef565b610afd84848484611541565b50505050565b6060610b0e82610d19565b610b725760405162461bcd60e51b815260206004820152602f60248201527f4552433732314d657461646174613a2055524920717565727920666f72206e6f60448201526e3732bc34b9ba32b73a103a37b5b2b760891b60648201526084016104b0565b6000828152600a602052604081208054610b8b90611fb5565b80601f0160208091040260200160405190810160405280929190818152602001828054610bb790611fb5565b8015610c045780601f10610bd957610100808354040283529160200191610c04565b820191906000526020600020905b815481529060010190602001808311610be757829003601f168201915b50505050509050600b8054610c1890611fb5565b9050600003610c275792915050565b805115610c5957600b81604051602001610c429291906120dc565b604051602081830303815290604052915050919050565b600b610c64846115bf565b604051602001610c429291906120dc565b6001600160a01b03918216600090815260076020908152604080832093909416825291909152205460ff1690565b610cab61112a565b6001600160a01b038116610d105760405162461bcd60e51b815260206004820152602660248201527f4f776e61626c653a206e6577206f776e657220697320746865207a65726f206160448201526564647265737360d01b60648201526084016104b0565b6107e6816111e2565b6000610651600383611652565b600081815260066020526040902080546001600160a01b0319166001600160a01b0384169081179091558190610d5b826107e9565b6001600160a01b03167f8c5be1e5ebec7d5bd14f71427d1e84f3dd0314c0f7b2291e5b200ac8c7c3b92560405160405180910390a45050565b60006106518261165e565b6000610daa82610d19565b610e0b5760405162461bcd60e51b815260206004820152602c60248201527f4552433732313a206f70657261746f7220717565727920666f72206e6f6e657860448201526b34b9ba32b73a103a37b5b2b760a11b60648201526084016104b0565b6000610e16836107e9565b9050806001600160a01b0316846001600160a01b03161480610e515750836001600160a01b0316610e4684610448565b6001600160a01b0316145b80610e615750610e618185610c75565b949350505050565b826001600160a01b0316610e7c826107e9565b6001600160a01b031614610ee45760405162461bcd60e51b815260206004820152602960248201527f4552433732313a207472616e73666572206f6620746f6b656e2074686174206960448201526839903737ba1037bbb760b91b60648201526084016104b0565b6001600160a01b038216610f465760405162461bcd60e51b8152602060048201526024808201527f4552433732313a207472616e7366657220746f20746865207a65726f206164646044820152637265737360e01b60648201526084016104b0565b610f51600082610d26565b6001600160a01b0383166000908152600260205260409020610f739082611669565b506001600160a01b0382166000908152600260205260409020610f969082611675565b50610fa360038284611681565b5080826001600160a01b0316846001600160a01b03167fddf252ad1be2c89b69c2b068fc378daa952ba7f163c4a11628f55a4df523b3ef60405160405180910390a4505050565b600061064e8383611697565b6001600160a01b03821661104c5760405162461bcd60e51b815260206004820181905260248201527f4552433732313a206d696e7420746f20746865207a65726f206164647265737360448201526064016104b0565b61105581610d19565b156110a25760405162461bcd60e51b815260206004820152601c60248201527f4552433732313a20746f6b656e20616c7265616479206d696e7465640000000060448201526064016104b0565b6001600160a01b03821660009081526002602052604090206110c49082611675565b506110d160038284611681565b5060405181906001600160a01b038416906000907fddf252ad1be2c89b69c2b068fc378daa952ba7f163c4a11628f55a4df523b3ef908290a45050565b600080808061111d86866116c1565b9097909650945050505050565b6001546001600160a01b031633146108be5760405162461bcd60e51b815260206004820181905260248201527f4f776e61626c653a2063616c6c6572206973206e6f7420746865206f776e657260448201526064016104b0565b600b611190828261214f565b507f325d37e8fb549c86966f09bc3e6f62eb3afa93b255d6e3234338001f3d80bd86816040516111c09190611d2c565b60405180910390a150565b6000610e618484846116ec565b6000610651825490565b600180546001600160a01b038381166001600160a01b0319831681179093556040519116919082907f8be0079c531659141344cd1fd0a4f28419497f9722a3daafe3b4186f6b6457e090600090a35050565b606060008260405160200161124b91815260200190565b60405160208183030381529060405290506000600d603361126d846000611738565b611277919061220f565b60ff168154811061128a5761128a61223f565b906000526020600020016040516020016112a49190612255565b604051602081830303815290604052600d60336112c2856001611738565b6112cc919061220f565b60ff16815481106112df576112df61223f565b906000526020600020016040516020016112f991906122da565b604051602081830303815290604052600d6033611317866002611738565b611321919061220f565b60ff16815481106113345761133461223f565b9060005260206000200160405160200161134e919061232e565b604051602081830303815290604052600d603361136c876003611738565b611376919061220f565b60ff16815481106113895761138961223f565b906000526020600020016040516020016113a39190612382565b604051602081830303815290604052600d60336113c1886004611738565b6113cb919061220f565b60ff16815481106113de576113de61223f565b906000526020600020016040516020016113f891906123da565b604051602081830303815290604052600d6033611416896005611738565b611420919061220f565b60ff16815481106114335761143361223f565b9060005260206000200160405160200161144d919061242e565b60408051601f198184030181529082905261146f969594939291602001612486565b60408051601f19818403018152919052949350505050565b6000611492826107e9565b905061149f600083610d26565b6000828152600a6020526040902080546114b890611fb5565b1590506114d6576000828152600a602052604081206114d691611c54565b6001600160a01b03811660009081526002602052604090206114f89083611669565b506115046003836117e1565b5060405182906000906001600160a01b038416907fddf252ad1be2c89b69c2b068fc378daa952ba7f163c4a11628f55a4df523b3ef908390a45050565b61154c848484610e69565b611558848484846117ed565b610afd5760405162461bcd60e51b815260206004820152603260248201527f4552433732313a207472616e7366657220746f206e6f6e20455243373231526560448201527131b2b4bb32b91034b6b83632b6b2b73a32b960711b60648201526084016104b0565b606060006115cc836118be565b600101905060008167ffffffffffffffff8111156115ec576115ec611dda565b6040519080825280601f01601f191660200182016040528015611616576020820181803683370190505b5090508181016020015b600019016f181899199a1a9b1b9c1cb0b131b232b360811b600a86061a8153600a850494508461162057509392505050565b600061064e8383611996565b6000610651826111d8565b600061064e83836119b5565b600061064e8383611aa8565b6000610e6184846001600160a01b038516611af7565b60008260000182815481106116ae576116ae61223f565b9060005260206000200154905092915050565b600080806116cf8585610fea565b600081815260029690960160205260409095205494959350505050565b60008281526002840160205260408120548015158061171057506117108585611996565b839061172f5760405162461bcd60e51b81526004016104b09190611d2c565b50949350505050565b600081611746816001612056565b10156117875760405162461bcd60e51b815260206004820152601060248201526f746f55696e74385f6f766572666c6f7760801b60448201526064016104b0565b611792826001612056565b835110156117d85760405162461bcd60e51b8152602060048201526013602482015272746f55696e74385f6f75744f66426f756e647360681b60448201526064016104b0565b50016001015190565b600061064e8383611b14565b60006001600160a01b0384163b61180657506001610e61565b600061188763150b7a0260e01b3388878760405160240161182a9493929190612548565b604051602081830303815290604052906001600160e01b0319166020820180516001600160e01b0383818316178352505050506040518060600160405280603281526020016125e8603291396001600160a01b0388169190611b31565b905060008180602001905181019061189f9190612585565b6001600160e01b031916630a85bd0160e11b1492505050949350505050565b60008072184f03e93ff9f4daa797ed6e38ed64bf6a1f0160401b83106118fd5772184f03e93ff9f4daa797ed6e38ed64bf6a1f0160401b830492506040015b6d04ee2d6d415b85acef81000000008310611929576d04ee2d6d415b85acef8100000000830492506020015b662386f26fc10000831061194757662386f26fc10000830492506010015b6305f5e100831061195f576305f5e100830492506008015b612710831061197357612710830492506004015b60648310611985576064830492506002015b600a83106106515760010192915050565b600061064e83836000818152600183016020526040812054151561064e565b60008181526001830160205260408120548015611a9e5760006119d96001836125a2565b85549091506000906119ed906001906125a2565b9050818114611a52576000866000018281548110611a0d57611a0d61223f565b9060005260206000200154905080876000018481548110611a3057611a3061223f565b6000918252602080832090910192909255918252600188019052604090208390555b8554869080611a6357611a636125b5565b600190038181906000526020600020016000905590558560010160008681526020019081526020016000206000905560019350505050610651565b6000915050610651565b6000818152600183016020526040812054611aef57508154600181810184556000848152602080822090930184905584548482528286019093526040902091909155610651565b506000610651565b60008281526002840160205260408120829055610e618484611675565b6000818152600283016020526040812081905561064e8383611669565b6060610e61848460008585600080866001600160a01b03168587604051611b5891906125cb565b60006040518083038185875af1925050503d8060008114611b95576040519150601f19603f3d011682016040523d82523d6000602084013e611b9a565b606091505b5091509150611bab87838387611bb6565b979650505050505050565b60608315611c25578251600003611c1e576001600160a01b0385163b611c1e5760405162461bcd60e51b815260206004820152601d60248201527f416464726573733a2063616c6c20746f206e6f6e2d636f6e747261637400000060448201526064016104b0565b5081610e61565b610e618383815115611c3a5781518083602001fd5b8060405162461bcd60e51b81526004016104b09190611d2c565b508054611c6090611fb5565b6000825580601f10611c70575050565b601f0160209004906000526020600020908101906107e691905b80821115611c9e5760008155600101611c8a565b5090565b6001600160e01b0319811681146107e657600080fd5b600060208284031215611cca57600080fd5b8135611cd581611ca2565b9392505050565b60005b83811015611cf7578181015183820152602001611cdf565b50506000910152565b60008151808452611d18816020860160208601611cdc565b601f01601f19169290920160200192915050565b60208152600061064e6020830184611d00565b600060208284031215611d5157600080fd5b5035919050565b80356001600160a01b0381168114611d6f57600080fd5b919050565b60008060408385031215611d8757600080fd5b611d9083611d58565b946020939093013593505050565b600080600060608486031215611db357600080fd5b611dbc84611d58565b9250611dca60208501611d58565b9150604084013590509250925092565b634e487b7160e01b600052604160045260246000fd5b600067ffffffffffffffff80841115611e0b57611e0b611dda565b604051601f8501601f19908116603f01168101908282118183101715611e3357611e33611dda565b81604052809350858152868686011115611e4c57600080fd5b858560208301376000602087830101525050509392505050565b600060208284031215611e7857600080fd5b813567ffffffffffffffff811115611e8f57600080fd5b8201601f81018413611ea057600080fd5b610e6184823560208401611df0565b600060208284031215611ec157600080fd5b61064e82611d58565b60008060408385031215611edd57600080fd5b611ee683611d58565b915060208301358015158114611efb57600080fd5b809150509250929050565b60008060008060808587031215611f1c57600080fd5b611f2585611d58565b9350611f3360208601611d58565b925060408501359150606085013567ffffffffffffffff811115611f5657600080fd5b8501601f81018713611f6757600080fd5b611f7687823560208401611df0565b91505092959194509250565b60008060408385031215611f9557600080fd5b611f9e83611d58565b9150611fac60208401611d58565b90509250929050565b600181811c90821680611fc957607f821691505b602082108103611fe957634e487b7160e01b600052602260045260246000fd5b50919050565b60208082526031908201527f4552433732313a207472616e736665722063616c6c6572206973206e6f74206f6040820152701ddb995c881b9bdc88185c1c1c9bdd9959607a1b606082015260800190565b634e487b7160e01b600052601160045260246000fd5b8082018082111561065157610651612040565b6000815461207681611fb5565b6001828116801561208e57600181146120a3576120d2565b60ff19841687528215158302870194506120d2565b8560005260208060002060005b858110156120c95781548a8201529084019082016120b0565b50505082870194505b5050505092915050565b60006120e88285612069565b83516120f8818360208801611cdc565b01949350505050565b601f8211156105e557600081815260208120601f850160051c810160208610156121285750805b601f850160051c820191505b8181101561214757828155600101612134565b505050505050565b815167ffffffffffffffff81111561216957612169611dda565b61217d816121778454611fb5565b84612101565b602080601f8311600181146121b2576000841561219a5750858301515b600019600386901b1c1916600185901b178555612147565b600085815260208120601f198616915b828110156121e1578886015182559484019460019091019084016121c2565b50858210156121ff5787850151600019600388901b60f8161c191681555b5050505050600190811b01905550565b600060ff83168061223057634e487b7160e01b600052601260045260246000fd5b8060ff84160491505092915050565b634e487b7160e01b600052603260045260246000fd5b7f3c7265637420783d27302720793d2730272077696474683d273130302720686581527f696768743d2731303027207374796c653d2766696c6c3a000000000000000000602082015260006122ad6037830184612069565b7f3b7374726f6b652d77696474683a333b7374726f6b653a626c61636b272f3e008152601f019392505050565b7f3c7265637420783d27302720793d27313030272077696474683d2731303027208152783432b4b3b43a1e93989818139039ba3cb6329e93b334b6361d60391b602082015260006122ad6039830184612069565b7f3c7265637420783d273130302720793d2730272077696474683d2731303027208152783432b4b3b43a1e93989818139039ba3cb6329e93b334b6361d60391b602082015260006122ad6039830184612069565b7f3c7265637420783d273130302720793d27313030272077696474683d2731303081527f27206865696768743d2731303027207374796c653d2766696c6c3a0000000000602082015260006122ad603b830184612069565b7f3c7265637420783d273230302720793d2730272077696474683d2731303027208152783432b4b3b43a1e93989818139039ba3cb6329e93b334b6361d60391b602082015260006122ad6039830184612069565b7f3c7265637420783d273230302720793d27313030272077696474683d2731303081527f27206865696768743d2731303027207374796c653d2766696c6c3a0000000000602082015260006122ad603b830184612069565b7f3c7376672077696474683d2733303027206865696768743d27323030273e000081526000601e885160206124c082848701838e01611cdc565b8951918501916124d581858501848e01611cdc565b89519201916124e981858501848d01611cdc565b88519201916124fd81858501848c01611cdc565b875192019161251181858501848b01611cdc565b865192019161252581858501848a01611cdc565b651e17b9bb339f60d11b9201928301919091525060240198975050505050505050565b6001600160a01b038581168252841660208201526040810183905260806060820181905260009061257b90830184611d00565b9695505050505050565b60006020828403121561259757600080fd5b8151611cd581611ca2565b8181038181111561065157610651612040565b634e487b7160e01b600052603160045260246000fd5b600082516125dd818460208701611cdc565b919091019291505056fe4552433732313a207472616e7366657220746f206e6f6e20455243373231526563656976657220696d706c656d656e7465724552433732313a206f776e657220717565727920666f72206e6f6e6578697374656e7420746f6b656ea26469706673582212203812a6ba9bf912deb1748214400da6fe0143e7c6386ef18194b685a493fc747364736f6c63430008130033d7b6990105719101dabeb77144f2a3385c8033acd3af97e9423a695e81ad1eb5",
  "devdoc": {
    "details": "see https://eips.ethereum.org/EIPS/eip-721",
    "events": {
      "Approval(address,address,uint256)": {
        "details": "Emitted when `owner` enables `approved` to manage the `tokenId` token."
      },
      "ApprovalForAll(address,address,bool)": {
        "details": "Emitted when `owner` enables or disables (`approved`) `operator` to manage all of its assets."
      },
      "Transfer(address,address,uint256)": {
        "details": "Emitted when `tokenId` token is transferred from `from` to `to`."
      }
    },
    "kind": "dev",
    "methods": {
      "approve(address,uint256)": {
        "details": "See {IERC721-approve}."
      },
      "balanceOf(address)": {
        "details": "See {IERC721-balanceOf}."
      },
      "baseURI()": {
        "details": "Returns the base URI set via {_setBaseURI}. This will be automatically added as a prefix in {tokenURI} to each token's URI, or to the token ID if no specific URI is set for that token ID."
      },
      "constructor": {
        "details": "Initializes the contract by setting a `name` and a `symbol` to the token collection."
      },
      "getApproved(uint256)": {
        "details": "See {IERC721-getApproved}."
      },
      "isApprovedForAll(address,address)": {
        "details": "See {IERC721-isApprovedForAll}."
      },
      "name()": {
        "details": "See {IERC721Metadata-name}."
      },
      "owner()": {
        "details": "Returns the address of the current owner."
      },
      "ownerOf(uint256)": {
        "details": "See {IERC721-ownerOf}."
      },
      "renounceOwnership()": {
        "details": "Leaves the contract without owner. It will not be possible to call `onlyOwner` functions. Can only be called by the current owner. NOTE: Renouncing ownership will leave the contract without an owner, thereby disabling any functionality that is only available to the owner."
      },
      "safeTransferFrom(address,address,uint256)": {
        "details": "See {IERC721-safeTransferFrom}."
      },
      "safeTransferFrom(address,address,uint256,bytes)": {
        "details": "See {IERC721-safeTransferFrom}."
      },
      "setApprovalForAll(address,bool)": {
        "details": "See {IERC721-setApprovalForAll}."
      },
      "supportsInterface(bytes4)": {
        "details": "See {IERC165-supportsInterface}. Time complexity O(1), guaranteed to always use less than 30 000 gas."
      },
      "symbol()": {
        "details": "See {IERC721Metadata-symbol}."
      },
      "tokenByIndex(uint256)": {
        "details": "See {IERC721Enumerable-tokenByIndex}."
      },
      "tokenOfOwnerByIndex(address,uint256)": {
        "details": "See {IERC721Enumerable-tokenOfOwnerByIndex}."
      },
      "tokenURI(uint256)": {
        "details": "See {IERC721Metadata-tokenURI}."
      },
      "totalSupply()": {
        "details": "See {IERC721Enumerable-totalSupply}."
      },
      "transferFrom(address,address,uint256)": {
        "details": "See {IERC721-transferFrom}."
      },
      "transferOwnership(address)": {
        "details": "Transfers ownership of the contract to a new account (`newOwner`). Can only be called by the current owner."
      }
    },
    "title": "ERC721 Non-Fungible Token Standard basic implementation",
    "version": 1
  },
  "userdoc": {
    "kind": "user",
    "methods": {},
    "version": 1
  },
  "storageLayout": {
    "storage": [
      {
        "astId": 10171,
        "contract": "contracts/ERC721.sol:ERC721",
        "label": "_supportedInterfaces",
        "offset": 0,
        "slot": "0",
        "type": "t_mapping(t_bytes4,t_bool)"
      },
      {
        "astId": 7,
        "contract": "contracts/ERC721.sol:ERC721",
        "label": "_owner",
        "offset": 0,
        "slot": "1",
        "type": "t_address"
      },
      {
        "astId": 10264,
        "contract": "contracts/ERC721.sol:ERC721",
        "label": "_holderTokens",
        "offset": 0,
        "slot": "2",
        "type": "t_mapping(t_address,t_struct(UintSet)3944_storage)"
      },
      {
        "astId": 10267,
        "contract": "contracts/ERC721.sol:ERC721",
        "label": "_tokenOwners",
        "offset": 0,
        "slot": "3",
        "type": "t_struct(UintToAddressMap)2702_storage"
      },
      {
        "astId": 10271,
        "contract": "contracts/ERC721.sol:ERC721",
        "label": "_tokenApprovals",
        "offset": 0,
        "slot": "6",
        "type": "t_mapping(t_uint256,t_address)"
      },
      {
        "astId": 10277,
        "contract": "contracts/ERC721.sol:ERC721",
        "label": "_operatorApprovals",
        "offset": 0,
        "slot": "7",
        "type": "t_mapping(t_address,t_mapping(t_address,t_bool))"
      },
      {
        "astId": 10279,
        "contract": "contracts/ERC721.sol:ERC721",
        "label": "_name",
        "offset": 0,
        "slot": "8",
        "type": "t_string_storage"
      },
      {
        "astId": 10281,
        "contract": "contracts/ERC721.sol:ERC721",
        "label": "_symbol",
        "offset": 0,
        "slot": "9",
        "type": "t_string_storage"
      },
      {
        "astId": 10285,
        "contract": "contracts/ERC721.sol:ERC721",
        "label": "_tokenURIs",
        "offset": 0,
        "slot": "10",
        "type": "t_mapping(t_uint256,t_string_storage)"
      },
      {
        "astId": 10287,
        "contract": "contracts/ERC721.sol:ERC721",
        "label": "_baseURI",
        "offset": 0,
        "slot": "11",
        "type": "t_string_storage"
      },
      {
        "astId": 10304,
        "contract": "contracts/ERC721.sol:ERC721",
        "label": "totalEverMinted",
        "offset": 0,
        "slot": "12",
        "type": "t_uint256"
      },
      {
        "astId": 10307,
        "contract": "contracts/ERC721.sol:ERC721",
        "label": "palette",
        "offset": 0,
        "slot": "13",
        "type": "t_array(t_string_storage)dyn_storage"
      }
    ],
    "types": {
      "t_address": {
        "encoding": "inplace",
        "label": "address",
        "numberOfBytes": "20"
      },
      "t_array(t_bytes32)dyn_storage": {
        "base": "t_bytes32",
        "encoding": "dynamic_array",
        "label": "bytes32[]",
        "numberOfBytes": "32"
      },
      "t_array(t_string_storage)dyn_storage": {
        "base": "t_string_storage",
        "encoding": "dynamic_array",
        "label": "string[]",
        "numberOfBytes": "32"
      },
      "t_bool": {
        "encoding": "inplace",
        "label": "bool",
        "numberOfBytes": "1"
      },
      "t_bytes32": {
        "encoding": "inplace",
        "label": "bytes32",
        "numberOfBytes": "32"
      },
      "t_bytes4": {
        "encoding": "inplace",
        "label": "bytes4",
        "numberOfBytes": "4"
      },
      "t_mapping(t_address,t_bool)": {
        "encoding": "mapping",
        "key": "t_address",
        "label": "mapping(address => bool)",
        "numberOfBytes": "32",
        "value": "t_bool"
      },
      "t_mapping(t_address,t_mapping(t_address,t_bool))": {
        "encoding": "mapping",
        "key": "t_address",
        "label": "mapping(address => mapping(address => bool))",
        "numberOfBytes": "32",
        "value": "t_mapping(t_address,t_bool)"
      },
      "t_mapping(t_address,t_struct(UintSet)3944_storage)": {
        "encoding": "mapping",
        "key": "t_address",
        "label": "mapping(address => struct EnumerableSet.UintSet)",
        "numberOfBytes": "32",
        "value": "t_struct(UintSet)3944_storage"
      },
      "t_mapping(t_bytes32,t_bytes32)": {
        "encoding": "mapping",
        "key": "t_bytes32",
        "label": "mapping(bytes32 => bytes32)",
        "numberOfBytes": "32",
        "value": "t_bytes32"
      },
      "t_mapping(t_bytes32,t_uint256)": {
        "encoding": "mapping",
        "key": "t_bytes32",
        "label": "mapping(bytes32 => uint256)",
        "numberOfBytes": "32",
        "value": "t_uint256"
      },
      "t_mapping(t_bytes4,t_bool)": {
        "encoding": "mapping",
        "key": "t_bytes4",
        "label": "mapping(bytes4 => bool)",
        "numberOfBytes": "32",
        "value": "t_bool"
      },
      "t_mapping(t_uint256,t_address)": {
        "encoding": "mapping",
        "key": "t_uint256",
        "label": "mapping(uint256 => address)",
        "numberOfBytes": "32",
        "value": "t_address"
      },
      "t_mapping(t_uint256,t_string_storage)": {
        "encoding": "mapping",
        "key": "t_uint256",
        "label": "mapping(uint256 => string)",
        "numberOfBytes": "32",
        "value": "t_string_storage"
      },
      "t_string_storage": {
        "encoding": "bytes",
        "label": "string",
        "numberOfBytes": "32"
      },
      "t_struct(Bytes32Set)3666_storage": {
        "encoding": "inplace",
        "label": "struct EnumerableSet.Bytes32Set",
        "members": [
          {
            "astId": 3665,
            "contract": "contracts/ERC721.sol:ERC721",
            "label": "_inner",
            "offset": 0,
            "slot": "0",
            "type": "t_struct(Set)3472_storage"
          }
        ],
        "numberOfBytes": "64"
      },
      "t_struct(Bytes32ToBytes32Map)2219_storage": {
        "encoding": "inplace",
        "label": "struct EnumerableMap.Bytes32ToBytes32Map",
        "members": [
          {
            "astId": 2214,
            "contract": "contracts/ERC721.sol:ERC721",
            "label": "_keys",
            "offset": 0,
            "slot": "0",
            "type": "t_struct(Bytes32Set)3666_storage"
          },
          {
            "astId": 2218,
            "contract": "contracts/ERC721.sol:ERC721",
            "label": "_values",
            "offset": 0,
            "slot": "2",
            "type": "t_mapping(t_bytes32,t_bytes32)"
          }
        ],
        "numberOfBytes": "96"
      },
      "t_struct(Set)3472_storage": {
        "encoding": "inplace",
        "label": "struct EnumerableSet.Set",
        "members": [
          {
            "astId": 3467,
            "contract": "contracts/ERC721.sol:ERC721",
            "label": "_values",
            "offset": 0,
            "slot": "0",
            "type": "t_array(t_bytes32)dyn_storage"
          },
          {
            "astId": 3471,
            "contract": "contracts/ERC721.sol:ERC721",
            "label": "_indexes",
            "offset": 0,
            "slot": "1",
            "type": "t_mapping(t_bytes32,t_uint256)"
          }
        ],
        "numberOfBytes": "64"
      },
      "t_struct(UintSet)3944_storage": {
        "encoding": "inplace",
        "label": "struct EnumerableSet.UintSet",
        "members": [
          {
            "astId": 3943,
            "contract": "contracts/ERC721.sol:ERC721",
            "label": "_inner",
            "offset": 0,
            "slot": "0",
            "type": "t_struct(Set)3472_storage"
          }
        ],
        "numberOfBytes": "64"
      },
      "t_struct(UintToAddressMap)2702_storage": {
        "encoding": "inplace",
        "label": "struct EnumerableMap.UintToAddressMap",
        "members": [
          {
            "astId": 2701,
            "contract": "contracts/ERC721.sol:ERC721",
            "label": "_inner",
            "offset": 0,
            "slot": "0",
            "type": "t_struct(Bytes32ToBytes32Map)2219_storage"
          }
        ],
        "numberOfBytes": "96"
      },
      "t_uint256": {
        "encoding": "inplace",
        "label": "uint256",
        "numberOfBytes": "32"
      }
    }
  }
}