{
  "address": "0xB998e3380df6659dc6913de0026BD337cFD6D510",
  "abi": [
    {
      "inputs": [
        {
          "internalType": "address payable",
          "name": "_creator",
          "type": "address"
        },
        {
          "internalType": "address payable",
          "name": "_charity",
          "type": "address"
        },
        {
          "internalType": "address",
          "name": "_gelatoOperator",
          "type": "address"
        }
      ],
      "stateMutability": "nonpayable",
      "type": "constructor"
    },
    {
      "anonymous": false,
      "inputs": [
        {
          "indexed": true,
          "internalType": "uint256",
          "name": "tokenId",
          "type": "uint256"
        },
        {
          "indexed": true,
          "internalType": "uint256",
          "name": "priceReceived",
          "type": "uint256"
        },
        {
          "indexed": true,
          "internalType": "uint256",
          "name": "reserveAfterBurn",
          "type": "uint256"
        }
      ],
      "name": "Burned",
      "type": "event"
    },
    {
      "anonymous": false,
      "inputs": [
        {
          "indexed": true,
          "internalType": "uint256",
          "name": "tokenId",
          "type": "uint256"
        },
        {
          "indexed": true,
          "internalType": "uint256",
          "name": "lotteryId",
          "type": "uint256"
        },
        {
          "indexed": false,
          "internalType": "bool",
          "name": "isWinner",
          "type": "bool"
        },
        {
          "indexed": true,
          "internalType": "uint256",
          "name": "prizeAmount",
          "type": "uint256"
        }
      ],
      "name": "Lottery",
      "type": "event"
    },
    {
      "anonymous": false,
      "inputs": [
        {
          "indexed": true,
          "internalType": "uint256",
          "name": "tokenId",
          "type": "uint256"
        },
        {
          "indexed": true,
          "internalType": "uint256",
          "name": "pricePaid",
          "type": "uint256"
        },
        {
          "indexed": true,
          "internalType": "uint256",
          "name": "reserveAfterMint",
          "type": "uint256"
        }
      ],
      "name": "Minted",
      "type": "event"
    },
    {
      "anonymous": false,
      "inputs": [
        {
          "indexed": true,
          "internalType": "address",
          "name": "previousOwner",
          "type": "address"
        },
        {
          "indexed": true,
          "internalType": "address",
          "name": "newOwner",
          "type": "address"
        }
      ],
      "name": "OwnershipTransferred",
      "type": "event"
    },
    {
      "anonymous": false,
      "inputs": [
        {
          "indexed": false,
          "internalType": "uint256",
          "name": "round",
          "type": "uint256"
        },
        {
          "indexed": false,
          "internalType": "bytes",
          "name": "data",
          "type": "bytes"
        }
      ],
      "name": "RequestedRandomness",
      "type": "event"
    },
    {
      "inputs": [],
      "name": "admin",
      "outputs": [
        {
          "internalType": "address",
          "name": "",
          "type": "address"
        }
      ],
      "stateMutability": "view",
      "type": "function"
    },
    {
      "inputs": [
        {
          "internalType": "uint256",
          "name": "tokenId",
          "type": "uint256"
        }
      ],
      "name": "burn",
      "outputs": [],
      "stateMutability": "nonpayable",
      "type": "function"
    },
    {
      "inputs": [],
      "name": "charity",
      "outputs": [
        {
          "internalType": "address payable",
          "name": "",
          "type": "address"
        }
      ],
      "stateMutability": "view",
      "type": "function"
    },
    {
      "inputs": [],
      "name": "creator",
      "outputs": [
        {
          "internalType": "address payable",
          "name": "",
          "type": "address"
        }
      ],
      "stateMutability": "view",
      "type": "function"
    },
    {
      "inputs": [
        {
          "internalType": "uint256",
          "name": "randomness",
          "type": "uint256"
        },
        {
          "internalType": "bytes",
          "name": "dataWithRound",
          "type": "bytes"
        }
      ],
      "name": "fulfillRandomness",
      "outputs": [],
      "stateMutability": "nonpayable",
      "type": "function"
    },
    {
      "inputs": [],
      "name": "gameEnded",
      "outputs": [
        {
          "internalType": "bool",
          "name": "",
          "type": "bool"
        }
      ],
      "stateMutability": "view",
      "type": "function"
    },
    {
      "inputs": [],
      "name": "getCurrentPriceToBurn",
      "outputs": [
        {
          "internalType": "uint256",
          "name": "",
          "type": "uint256"
        }
      ],
      "stateMutability": "view",
      "type": "function"
    },
    {
      "inputs": [],
      "name": "getCurrentPriceToMint",
      "outputs": [
        {
          "internalType": "uint256",
          "name": "",
          "type": "uint256"
        }
      ],
      "stateMutability": "view",
      "type": "function"
    },
    {
      "inputs": [],
      "name": "getReserveCut",
      "outputs": [
        {
          "internalType": "uint256",
          "name": "",
          "type": "uint256"
        }
      ],
      "stateMutability": "view",
      "type": "function"
    },
    {
      "inputs": [],
      "name": "initMintPrice",
      "outputs": [
        {
          "internalType": "uint256",
          "name": "",
          "type": "uint256"
        }
      ],
      "stateMutability": "view",
      "type": "function"
    },
    {
      "inputs": [
        {
          "internalType": "contract ERC721",
          "name": "_nft",
          "type": "address"
        }
      ],
      "name": "initNFT",
      "outputs": [],
      "stateMutability": "nonpayable",
      "type": "function"
    },
    {
      "inputs": [
        {
          "internalType": "uint256",
          "name": "tokenId",
          "type": "uint256"
        }
      ],
      "name": "isRare",
      "outputs": [
        {
          "internalType": "bool",
          "name": "",
          "type": "bool"
        }
      ],
      "stateMutability": "pure",
      "type": "function"
    },
    {
      "inputs": [
        {
          "internalType": "uint256",
          "name": "tokenId",
          "type": "uint256"
        }
      ],
      "name": "isUkrainianFlag",
      "outputs": [
        {
          "internalType": "bool",
          "name": "",
          "type": "bool"
        }
      ],
      "stateMutability": "pure",
      "type": "function"
    },
    {
      "inputs": [],
      "name": "mint",
      "outputs": [
        {
          "internalType": "uint256",
          "name": "requestId",
          "type": "uint256"
        }
      ],
      "stateMutability": "payable",
      "type": "function"
    },
    {
      "inputs": [],
      "name": "nft",
      "outputs": [
        {
          "internalType": "contract ERC721",
          "name": "",
          "type": "address"
        }
      ],
      "stateMutability": "view",
      "type": "function"
    },
    {
      "inputs": [],
      "name": "nftsCount",
      "outputs": [
        {
          "internalType": "uint256",
          "name": "",
          "type": "uint256"
        }
      ],
      "stateMutability": "view",
      "type": "function"
    },
    {
      "inputs": [],
      "name": "owner",
      "outputs": [
        {
          "internalType": "address",
          "name": "",
          "type": "address"
        }
      ],
      "stateMutability": "view",
      "type": "function"
    },
    {
      "inputs": [],
      "name": "rarePrizeMultiplier",
      "outputs": [
        {
          "internalType": "uint256",
          "name": "",
          "type": "uint256"
        }
      ],
      "stateMutability": "view",
      "type": "function"
    },
    {
      "inputs": [],
      "name": "renounceOwnership",
      "outputs": [],
      "stateMutability": "nonpayable",
      "type": "function"
    },
    {
      "inputs": [
        {
          "internalType": "uint256",
          "name": "",
          "type": "uint256"
        }
      ],
      "name": "requestPending",
      "outputs": [
        {
          "internalType": "bool",
          "name": "",
          "type": "bool"
        }
      ],
      "stateMutability": "view",
      "type": "function"
    },
    {
      "inputs": [
        {
          "internalType": "uint256",
          "name": "",
          "type": "uint256"
        }
      ],
      "name": "requestedHash",
      "outputs": [
        {
          "internalType": "bytes32",
          "name": "",
          "type": "bytes32"
        }
      ],
      "stateMutability": "view",
      "type": "function"
    },
    {
      "inputs": [
        {
          "internalType": "uint256",
          "name": "",
          "type": "uint256"
        }
      ],
      "name": "requests",
      "outputs": [
        {
          "internalType": "bool",
          "name": "isMint",
          "type": "bool"
        },
        {
          "internalType": "address",
          "name": "_address",
          "type": "address"
        },
        {
          "internalType": "uint256",
          "name": "_price",
          "type": "uint256"
        },
        {
          "internalType": "uint256",
          "name": "_reserve",
          "type": "uint256"
        },
        {
          "internalType": "uint256",
          "name": "_tokenId",
          "type": "uint256"
        }
      ],
      "stateMutability": "view",
      "type": "function"
    },
    {
      "inputs": [],
      "name": "reserve",
      "outputs": [
        {
          "internalType": "uint256",
          "name": "",
          "type": "uint256"
        }
      ],
      "stateMutability": "view",
      "type": "function"
    },
    {
      "inputs": [
        {
          "internalType": "uint256",
          "name": "_flagMultiplier",
          "type": "uint256"
        },
        {
          "internalType": "uint256",
          "name": "_rareMultiplier",
          "type": "uint256"
        }
      ],
      "name": "setPrizeMultipliers",
      "outputs": [],
      "stateMutability": "nonpayable",
      "type": "function"
    },
    {
      "inputs": [
        {
          "internalType": "address",
          "name": "newOwner",
          "type": "address"
        }
      ],
      "name": "transferOwnership",
      "outputs": [],
      "stateMutability": "nonpayable",
      "type": "function"
    },
    {
      "inputs": [],
      "name": "ukrainianFlagPrizeMultiplier",
      "outputs": [
        {
          "internalType": "uint256",
          "name": "",
          "type": "uint256"
        }
      ],
      "stateMutability": "view",
      "type": "function"
    }
  ],
  "transactionHash": "0x817214fd61159159c394b791d51d0e151687741395a5177f98d7cbb7c7c6f10f",
  "args": [
    "0x1135D4546611D7CcCC7C4E0315072Ef2E61b9483",
    "0x1135D4546611D7CcCC7C4E0315072Ef2E61b9483",
    "0x1135D4546611D7CcCC7C4E0315072Ef2E61b9483"
  ],
  "solcInputHash": "375ce410318d5eea1861b9ee94398cd7",
  "bytecode": "0x6101006040523480156200001257600080fd5b5060405162003d0538038062003d05833981016040819052620000359162000109565b62000040336200009e565b6001600160a01b0383166200005457600080fd5b6001600160a01b0382166200006857600080fd5b6001600160a01b0381166200007c57600080fd5b6001600160a01b0392831660a05290821660c052166080523360e0526200015d565b600280546001600160a01b038381166001600160a01b0319831681179093556040519116919082907f8be0079c531659141344cd1fd0a4f28419497f9722a3daafe3b4186f6b6457e090600090a35050565b6001600160a01b03811681146200010657600080fd5b50565b6000806000606084860312156200011f57600080fd5b83516200012c81620000f0565b60208501519093506200013f81620000f0565b60408501519092506200015281620000f0565b809150509250925092565b60805160a05160c05160e051613b60620001a560003960006105190152600081816103ed01526108fb015260008181610198015261082601526000610dbd0152613b606000f3fe6080604052600436106101815760003560e01c80638aa31954116100d1578063c4f8f27b1161008a578063d441426a11610064578063d441426a146104bd578063e4628745146104d2578063f2fde38b146104e7578063f851a4401461050757600080fd5b8063c4f8f27b14610465578063c96b654414610492578063cd3293de146104a757600080fd5b80638aa31954146103a75780638da5cb5b146103bd578063934aa023146103db578063a0420d521461040f578063a6d2d02e14610425578063b3f6b99a1461044557600080fd5b806341d6bbd61161013e5780635cf0ef7a116101185780635cf0ef7a146102d4578063715018a6146102ea57806375ce7fff146102ff57806381d12c581461031f57600080fd5b806341d6bbd61461027257806342966c681461029457806347ccca02146102b457600080fd5b806302d05d3f14610186578063066ea10d146101d75780631249c58b146102075780631649229f1461021d5780631fe09da3146102385780632f6fe39614610258575b600080fd5b34801561019257600080fd5b506101ba7f000000000000000000000000000000000000000000000000000000000000000081565b6040516001600160a01b0390911681526020015b60405180910390f35b3480156101e357600080fd5b506101f76101f23660046136ce565b61053b565b60405190151581526020016101ce565b61020f610656565b6040519081526020016101ce565b34801561022957600080fd5b5061020f66b1a2bc2ec5000081565b34801561024457600080fd5b506101f76102533660046136ce565b610a74565b34801561026457600080fd5b506005546101f79060ff1681565b34801561027e57600080fd5b5061029261028d3660046136fc565b610ae8565b005b3480156102a057600080fd5b506102926102af3660046136ce565b610b5f565b3480156102c057600080fd5b506009546101ba906001600160a01b031681565b3480156102e057600080fd5b5061020f60065481565b3480156102f657600080fd5b50610292610c07565b34801561030b57600080fd5b506101f761031a3660046136ce565b610c1b565b34801561032b57600080fd5b5061037561033a3660046136ce565b6003602081905260009182526040909120805460018201546002830154929093015460ff8216936101009092046001600160a01b0316929085565b6040805195151586526001600160a01b039094166020860152928401919091526060830152608082015260a0016101ce565b3480156103b357600080fd5b5061020f60045481565b3480156103c957600080fd5b506002546001600160a01b03166101ba565b3480156103e757600080fd5b506101ba7f000000000000000000000000000000000000000000000000000000000000000081565b34801561041b57600080fd5b5061020f60075481565b34801561043157600080fd5b50610292610440366004613719565b610c4f565b34801561045157600080fd5b5061029261046036600461373b565b610db2565b34801561047157600080fd5b5061020f6104803660046136ce565b60016020526000908152604090205481565b34801561049e57600080fd5b5061020f610f8d565b3480156104b357600080fd5b5061020f60085481565b3480156104c957600080fd5b5061020f61102d565b3480156104de57600080fd5b5061020f611066565b3480156104f357600080fd5b506102926105023660046136fc565b611070565b34801561051357600080fd5b506101ba7f000000000000000000000000000000000000000000000000000000000000000081565b60408051602081018390526000918291016040516020818303038152906040529050603361056a8260006110e9565b61057491906137e3565b60ff16600114801561059f5750603361058e8260016110e9565b61059891906137e3565b60ff166003145b156105ad5750600192915050565b60336105ba8260026110e9565b6105c491906137e3565b60ff1660011480156105ef575060336105de8260036110e9565b6105e891906137e3565b60ff166003145b156105fd5750600192915050565b603361060a8260046110e9565b61061491906137e3565b60ff16600114801561063f5750603361062e8260056110e9565b61063891906137e3565b60ff166003145b1561064d5750600192915050565b50600092915050565b6009546000906001600160a01b03166106ac5760405162461bcd60e51b8152602060048201526013602482015272139195081b9bdd081a5b9a5d1a585b1a5e9959606a1b60448201526064015b60405180910390fd5b60055460ff16156106ef5760405162461bcd60e51b815260206004820152600d60248201526c10ce8811d85b5948195b991959609a1b60448201526064016106a3565b600034116107305760405162461bcd60e51b815260206004820152600e60248201526d10ce88139bc8115512081cd95b9d60921b60448201526064016106a3565b600061073a610f8d565b9050803410156107855760405162461bcd60e51b815260206004820152601660248201527510ce88139bdd08195b9bdd59da08115512081cd95b9d60521b60448201526064016106a3565b60408051600160208201526000910160405160208183030381529060405290506107ae81611192565b6004805491945060006107c083613805565b919050555060006107cf611066565b6008549091506107df9082611293565b60089081556000858152600360205260408120805460016001600160a81b031990911661010033021781178255810186905591546002909201919091556001600160a01b037f00000000000000000000000000000000000000000000000000000000000000001661085d6103e86108578760326112a6565b906112b2565b604051600081818185875af1925050503d8060008114610899576040519150601f19603f3d011682016040523d82523d6000602084013e61089e565b606091505b505080915050806108f15760405162461bcd60e51b815260206004820152601960248201527f556e61626c6520746f2073656e6420746f2063726561746f720000000000000060448201526064016106a3565b6001600160a01b037f00000000000000000000000000000000000000000000000000000000000000001661092c6103e86108578760966112a6565b604051600081818185875af1925050503d8060008114610968576040519150601f19603f3d011682016040523d82523d6000602084013e61096d565b606091505b505080915050806109c05760405162461bcd60e51b815260206004820152601960248201527f556e61626c6520746f2073656e6420746f20636861726974790000000000000060448201526064016106a3565b60006109cc34866112be565b90508015610a6c5760405133908290600081818185875af1925050503d8060008114610a14576040519150601f19603f3d011682016040523d82523d6000602084013e610a19565b606091505b50508092505081610a6c5760405162461bcd60e51b815260206004820152601a60248201527f556e61626c6520746f2073656e6420627566666572206261636b00000000000060448201526064016106a3565b505050505090565b6040805160208101839052600091829101604051602081830303815290604052905060005b6006811015610ade576033610aae83836110e9565b610ab891906137e3565b60ff16600503610acc575060019392505050565b80610ad681613805565b915050610a99565b5060009392505050565b610af06112ca565b6009546001600160a01b031615610b3d5760405162461bcd60e51b8152602060048201526011602482015270105b1c9958591e481a5b9a5d1a585d1959607a1b60448201526064016106a3565b600980546001600160a01b0319166001600160a01b0392909216919091179055565b6009546001600160a01b0316610bad5760405162461bcd60e51b8152602060048201526013602482015272139195081b9bdd081a5b9a5d1a585b1a5e9959606a1b60448201526064016106a3565b60408051600060208201819052910160405160208183030381529060405290506000610bd882611192565b60009081526003602081905260409091208054610100600160a81b031916336101000217815501929092555050565b610c0f6112ca565b610c196000611324565b565b60008181548110610c2b57600080fd5b9060005260206000209060209182820401919006915054906101000a900460ff1681565b610c576112ca565b8115801590610c6557508015155b610cbc5760405162461bcd60e51b815260206004820152602260248201527f43757276653a204d756c7469706c696572732063616e6e6f74206265207a6572604482015261379760f11b60648201526084016106a3565b81600211158015610cce575060088211155b610d315760405162461bcd60e51b815260206004820152602e60248201527f43757276653a20466c6167206d756c7469706c696572206d757374206265206260448201526d0cae8eecacadc406440c2dcc840760931b60648201526084016106a3565b80600511158015610d43575060288111155b610da75760405162461bcd60e51b815260206004820152602f60248201527f43757276653a2052617265206d756c7469706c696572206d757374206265206260448201526e065747765656e203520616e6420343608c1b60648201526084016106a3565b600691909155600755565b336001600160a01b037f00000000000000000000000000000000000000000000000000000000000000001614610e1a5760405162461bcd60e51b815260206004820152600d60248201526c37b7363c9037b832b930ba37b960991b60448201526064016106a3565b6000610e288284018461388d565b91505060008082806020019051810190610e42919061396b565b9150915060008585604051610e589291906139c6565b6040805191829003909120600085815260016020529182205482549193508314919085908110610e8a57610e8a6139d6565b90600052602060002090602091828204019190069054906101000a900460ff16610ef65760405162461bcd60e51b815260206004820152601c60248201527f726571756573742066756c66696c6c6564206f72206d697373696e670000000060448201526064016106a3565b8015610f835760408051602081018a905230918101919091524660608201526080810185905260a0016040516020818303038152906040528051906020012060001c9750610f45888585611376565b6000808581548110610f5957610f596139d6565b90600052602060002090602091828204019190066101000a81548160ff0219169083151502179055505b5050505050505050565b6000611028611023610fa566b1a2bc2ec50000611866565b610fe261400160f01b61101e610fc0613fff60f01b836118cd565b610fe2611019611010610fe7610fd7600454611866565b610fe2600454611866565b6118df565b61100b6f1ffd952e6c05810328b4133f6557300560811b630802249f60e31b6118df565b611b6a565b600160ff1b1890565b611e0f565b611e36565b612200565b905090565b600080611038610f8d565b90506110566103e861085761104f60326096611293565b84906112a6565b61106090826139ec565b92915050565b600061102861102d565b6110786112ca565b6001600160a01b0381166110dd5760405162461bcd60e51b815260206004820152602660248201527f4f776e61626c653a206e6577206f776e657220697320746865207a65726f206160448201526564647265737360d01b60648201526084016106a3565b6110e681611324565b50565b6000816110f78160016139ff565b10156111385760405162461bcd60e51b815260206004820152601060248201526f746f55696e74385f6f766572666c6f7760801b60448201526064016106a3565b6111438260016139ff565b835110156111895760405162461bcd60e51b8152602060048201526013602482015272746f55696e74385f6f75744f66426f756e647360681b60448201526064016106a3565b50016001015190565b60008054600180820180845583805291929091839081106111b5576111b56139d6565b90600052602060002090602091828204019190066101000a81548160ff021916908315150217905550600081836040516020016111f3929190613a12565b6040516020818303038152906040529050600061120e612283565b905060008183604051602001611225929190613a12565b60408051601f198184030181528282528051602080830191909120600089815260019092529290208290559250907fd91fc3685b930310b008ec37d2334870cab88a023ed8cc628a2e2ccd4e55d202906112829085908790613a12565b60405180910390a150505050919050565b600061129f82846139ff565b9392505050565b600061129f8284613a4c565b600061129f8284613a63565b600061129f82846139ec565b6002546001600160a01b03163314610c195760405162461bcd60e51b815260206004820181905260248201527f4f776e61626c653a2063616c6c6572206973206e6f7420746865206f776e657260448201526064016106a3565b600280546001600160a01b038381166001600160a01b0319831681179093556040519116919082907f8be0079c531659141344cd1fd0a4f28419497f9722a3daafe3b4186f6b6457e090600090a35050565b60008281526003602052604090205460ff1615611466576009546000838152600360205260408082205490516340c10f1960e01b81526001600160a01b036101009092048216600482015260248101879052919216906340c10f19906044016020604051808303816000875af11580156113f4573d6000803e3d6000fd5b505050506040513d601f19601f820116820180604052508101906114189190613a77565b6000848152600360205260408082206002810154600190910154915193945092909184917f488bbf7ce8682b98371a0bb07d4e838ce2e533a907ceda8ac6ee658fdbd162e09190a450505050565b60008281526003602081905260408220015461148181610a74565b156114a15761149a60075461149461102d565b906112a6565b9150611698565b6114aa8161053b565b156114bd5761149a60065461149461102d565b6000600854116115075760405162461bcd60e51b81526020600482015260156024820152740526573657276652073686f756c64206265203e203605c1b60448201526064016106a3565b60095460405163719b7c1d60e01b8152600481018790526000916001600160a01b03169063719b7c1d90602401600060405180830381865afa158015611551573d6000803e3d6000fd5b505050506040513d6000823e601f3d908101601f191682016040526115799190810190613a90565b60095460405163719b7c1d60e01b8152600481018590529192506000916001600160a01b039091169063719b7c1d90602401600060405180830381865afa1580156115c8573d6000803e3d6000fd5b505050506040513d6000823e601f3d908101601f191682016040526115f09190810190613a90565b9050806040516020016116039190613ae1565b604051602081830303815290604052805190602001208260405160200161162a9190613ae1565b6040516020818303038152906040528051906020012003611695576008546005805460ff191660019081179091556040519081529094508490889085907f02febe486e867135ad8e49bc98d0bc2cedebf512a306de0112042984197ede219060200160405180910390a45b50505b60095460008581526003602052604090819020549051632770a7eb60e21b81526001600160a01b036101009092048216600482015260248101849052911690639dc29fac90604401600060405180830381600087803b1580156116fa57600080fd5b505af115801561170e573d6000803e3d6000fd5b50506004805492509050600061172383613afd565b91905055508185827f02febe486e867135ad8e49bc98d0bc2cedebf512a306de0112042984197ede21600060405161175f911515815260200190565b60405180910390a460085461177490836112be565b6008556000848152600360205260408082205490516101009091046001600160a01b031690849060006040518083038185875af1925050503d80600081146117d8576040519150601f19603f3d011682016040523d82523d6000602084013e6117dd565b606091505b505090508061182e5760405162461bcd60e51b815260206004820152601860248201527f556e61626c6520746f2073656e64206275726e5072696365000000000000000060448201526064016106a3565b600854604051849084907f82ac44fe03cbf84203fdc07400a8a763498cf2ccaa9788e23b09d56f4fc85f7290600090a4505050505050565b60008160000361187857506000919050565b816000611884826122da565b9050607081101561189d578060700382901b91506118b0565b60708111156118b0576070810382901c91505b613fff0160701b6001600160701b03919091161760801b92915050565b600061129f83600160ff1b8418611e36565b6000617fff60f084811c8216919084901c81169082900361198f5780617fff0361195a576001600160801b03198085169086160361192857505050600160ff1b81168218611060565b6001600160801b031985851816600160ff1b0361194a57505050818117611060565b5061ffff60ef1b91506110609050565b600160801b600160ff1b03841660000361197e575061ffff60ef1b91506110609050565b505050600160ff1b81168218611060565b80617fff036119cd57600160801b600160ff1b0385166000036119bc575061ffff60ef1b91506110609050565b505050600160ff1b82168118611060565b6001600160701b03608086901c1660008390036119ed57600192506119f4565b600160701b175b6001600160701b03608086901c166000839003611a145760019250611a1b565b600160701b175b808202915081600003611a4d57600160ff1b87871816611a3c576000611a42565b600160ff1b5b945050505050611060565b928201926000600160e11b831015611a8057600160e01b831015611a7957611a74836122da565b611a83565b60e0611a83565b60e15b90506140708186011015611a9e576000945060009250611b3b565b6140e08186011015611ae157614070851015611ac357846140700383901c9250611ad8565b614070851115611ad857614070850383901b92505b60009450611b3b565b61c0dd8186011115611afb57617fff945060009250611b3b565b6070811115611b12576070810383901c9250611b25565b6070811015611b25578060700383901b92505b6001600160701b03831692506140df8186010394505b82607086901b888a186001607f1b60801b1660801c6001600160801b0316171760801b95505050505050611060565b6000617fff60f084811c8216919084901c811690829003611b9e5780617fff0361197e575061ffff60ef1b91506110609050565b80617fff03611be1576dffffffffffffffffffffffffffff60801b841615611bd0575061ffff60ef1b91506110609050565b505050808218600160ff1b16611060565b600160801b600160ff1b038416600003611c3157600160801b600160ff1b038516600003611c19575061ffff60ef1b91506110609050565b505050808218600160ff1b16617fff60f01b17611060565b6001600160701b03608085901c166000829003611c515760019150611c58565b600160701b175b6001600160701b03608087901c166000849003611c9b578015611c96576000611c80826122da565b6001955060e20393840160711901939190911b90505b611ca5565b600160701b1760721b5b818181611cb457611cb46137b7565b04905080600003611cd357600160ff1b87871816611a3c576000611a42565b6001606c1b811015611ce757611ce7613b14565b6000600160731b821015611d2657600160721b821015611d1b57600160711b821015611d14576070611d1e565b6071611d1e565b60725b60ff16611d2f565b611d2f826122da565b905083614071018186011115611d4d57617fff945060009150611de0565b83818601613ffc011015611d68576000945060009150611de0565b83818601613f8c011015611db5578385613ffc011115611d93578385613ffc010382901b9150611dac565b8385613ffc011015611dac57613ffc8585030382901c91505b60009450611de0565b6070811115611dc8576070810382901c91505b6001600160701b038216915083818601613f8d010394505b81607086901b888a186001607f1b60801b1660801c6001600160801b0316171760801b95505050505050611060565b6000611060611e31836f1fffb8aa3b295c17f0bbbe87fed0691d60811b6118df565b612378565b6000617fff60f084811c8216919084901c811690829003611e825780617fff03611e78576001600160801b03198085169086160361194a578492505050611060565b8492505050611060565b80617fff03611e95578392505050611060565b6001607f1b608086901c90811015906001600160701b03166000849003611ebf5760019350611ec6565b600160701b175b6001607f1b608087901c90811015906001600160701b03166000859003611ef05760019450611ef7565b600160701b175b82600003611f2a576001600160801b03198816600160ff1b14611f1a5787611f1d565b60005b9650505050505050611060565b80600003611f4d576001600160801b03198916600160ff1b14611f1a5788611f1d565b84860382151585151503612056576070811315611f735789975050505050505050611060565b6000811315611f855790811c90611fb4565b606f19811215611f9e5788975050505050505050611060565b6000811215611fb4578060000384901c93508596505b92810192600160711b8410611fcf576001968701969390931c925b86617fff036120005784611fe857617fff60f01b611ff2565b6001600160f01b03195b975050505050505050611060565b600160701b8410156120155760009650612022565b6001600160701b03841693505b83607088901b8661203457600061203a565b6001607f1b5b6001600160801b0316171760801b975050505050505050611060565b600081131561207157600184901b9350600187039650612088565b600081121561208857600182901b91506001860396505b607081131561209a57600191506120e7565b60018113156120b7576001810360018303901c60010191506120e7565b606f198112156120ca57600193506120e7565b6000198112156120e7576001816000030360018503901c60010193505b8184106120f8578184039350612101565b83820393508294505b8360000361211a57506000965061106095505050505050565b6000612125856122da565b90508060710361214a57600185901c6001600160701b03169450600188019750612199565b607081101561218c57607081900380891115612179578086901b6001600160701b031695508089039850612186565b600098600019019590951b945b50612199565b6001600160701b03851694505b87617fff036121cb57856121b257617fff60f01b6121bc565b6001600160f01b03195b98505050505050505050611060565b84607089901b876121dd5760006121e3565b6001607f1b5b6001600160801b0316171760801b98505050505050505050611060565b6000617fff60f083901c16613fff81101561221e5750600092915050565b6001607f1b608084901c1061223257600080fd5b6140fe81111561224157600080fd5b600160701b6001600160701b03608085901c161761406f82101561226b5761406f8290031c61129f565b61406f82111561129f5761406e1982011b9392505050565b6000806122946364e62127426139ec565b905060006122a3600383613a63565b6122ae9060016139ff565b9050466001146122c8576122c38160016139ff565b6122d3565b6122d38160046139ff565b9250505090565b60008082116122e857600080fd5b6000600160801b83106122fd57608092831c92015b600160401b831061231057604092831c92015b640100000000831061232457602092831c92015b62010000831061233657601092831c92015b610100831061234757600892831c92015b6010831061235757600492831c92015b6004831061236757600292831c92015b600283106110605760010192915050565b60006001607f1b608083901c90811190617fff60f085901c8116916001600160701b031690821480156123aa57508015155b156123be575061ffff60ef1b949350505050565b61400d8211156123e457826123d857617fff60f01b6123db565b60005b95945050505050565b613f7f8210156123fd5750613fff60f01b949350505050565b8160000361240e5760019150612415565b600160701b175b613fef82111561242b57613fee1982011b61243d565b613fef82101561243d57613fef8290031c5b82801561244e575061203760811b81115b1561245e57506000949350505050565b8215801561247d5750713fffffffffffffffffffffffffffffffffff81115b156124915750617fff60f01b949350505050565b6001600160801b0381169060801c8380156124ab57508115155b156124b7579019906001015b6001607f1b828116156124db5770016a09e667f3bcc908b2fb1366ea957d3e0260801c5b6001607e1b8316156124fe577001306fe0a31b7152de8d5a46305c85edec0260801c5b6001607d1b831615612521577001172b83c7d517adcdf7c8c50eb14a791f0260801c5b6001607c1b8316156125445770010b5586cf9890f6298b92b71842a983630260801c5b6001607b1b831615612567577001059b0d31585743ae7c548eb68ca417fd0260801c5b6001607a1b83161561258a57700102c9a3e778060ee6f7caca4f7a29bde80260801c5b600160791b8316156125ad5770010163da9fb33356d84a66ae336dcdfa3f0260801c5b600160781b8316156125d057700100b1afa5abcbed6129ab13ec11dc95430260801c5b600160771b8316156125f35770010058c86da1c09ea1ff19d294cf2f679b0260801c5b600160761b831615612616577001002c605e2e8cec506d21bfc89a23a00f0260801c5b600160751b83161561263957700100162f3904051fa128bca9c55c31e5df0260801c5b600160741b83161561265c577001000b175effdc76ba38e31671ca9397250260801c5b600160731b83161561267f57700100058ba01fb9f96d6cacd4b180917c3d0260801c5b600160721b8316156126a25770010002c5cc37da9491d0985c348c68e7b30260801c5b600160711b8316156126c5577001000162e525ee054754457d59952920260260801c5b600160701b8316156126e85770010000b17255775c040618bf4a4ade83fc0260801c5b6001606f1b83161561270b577001000058b91b5bc9ae2eed81e9b7d4cfab0260801c5b6001606e1b83161561272e57700100002c5c89d5ec6ca4d7c8acc017b7c90260801c5b6001606d1b8316156127515770010000162e43f4f831060e02d839a9d16d0260801c5b6001606c1b83161561277457700100000b1721bcfc99d9f890ea069117630260801c5b6001606b1b8316156127975770010000058b90cf1e6d97f9ca14dbcc16280260801c5b6001606a1b8316156127ba577001000002c5c863b73f016468f6bac5ca2b0260801c5b600160691b8316156127dd57700100000162e430e5a18f6119e3c02282a50260801c5b600160681b831615612800577001000000b1721835514b86e6d96efd1bfe0260801c5b600160671b83161561282357700100000058b90c0b48c6be5df846c5b2ef0260801c5b600160661b8316156128465770010000002c5c8601cc6b9e94213c72737a0260801c5b600160651b831615612869577001000000162e42fff037df38aa2b219f060260801c5b600160641b83161561288c5770010000000b17217fba9c739aa5819f44f90260801c5b600160631b8316156128af577001000000058b90bfcdee5acd3c1cedc8230260801c5b600160621b8316156128d257700100000002c5c85fe31f35a6a30da1be500260801c5b600160611b8316156128f55770010000000162e42ff0999ce3541b9fffcf0260801c5b600160601b83161561291857700100000000b17217f80f4ef5aadda455540260801c5b6001605f1b83161561293b5770010000000058b90bfbf8479bd5a81b51ad0260801c5b6001605e1b83161561295e577001000000002c5c85fdf84bd62ae30a74cc0260801c5b6001605d1b83161561298157700100000000162e42fefb2fed257559bdaa0260801c5b6001605c1b8316156129a4577001000000000b17217f7d5a7716bba4a9ae0260801c5b6001605b1b8316156129c757700100000000058b90bfbe9ddbac5e109cce0260801c5b6001605a1b8316156129ea5770010000000002c5c85fdf4b15de6f17eb0d0260801c5b600160591b831615612a0d577001000000000162e42fefa494f1478fde050260801c5b600160581b831615612a305770010000000000b17217f7d20cf927c8e94c0260801c5b600160571b831615612a53577001000000000058b90bfbe8f71cb4e4b33d0260801c5b600160561b831615612a7657700100000000002c5c85fdf477b662b269450260801c5b600160551b831615612a995770010000000000162e42fefa3ae53369388c0260801c5b600160541b831615612abc57700100000000000b17217f7d1d351a389d400260801c5b600160531b831615612adf5770010000000000058b90bfbe8e8b2d3d4ede0260801c5b600160521b831615612b02577001000000000002c5c85fdf4741bea6e77e0260801c5b600160511b831615612b2557700100000000000162e42fefa39fe95583c20260801c5b600160501b831615612b48577001000000000000b17217f7d1cfb72b45e10260801c5b6980000000000000000000831615612b7157700100000000000058b90bfbe8e7cc35c3f00260801c5b6940000000000000000000831615612b9a5770010000000000002c5c85fdf473e242ea380260801c5b6920000000000000000000831615612bc3577001000000000000162e42fefa39f02b772c0260801c5b6910000000000000000000831615612bec5770010000000000000b17217f7d1cf7d83c1a0260801c5b6908000000000000000000831615612c15577001000000000000058b90bfbe8e7bdcbe2e0260801c5b6904000000000000000000831615612c3e57700100000000000002c5c85fdf473dea871f0260801c5b6902000000000000000000831615612c675770010000000000000162e42fefa39ef44d910260801c5b6901000000000000000000831615612c9057700100000000000000b17217f7d1cf79e9490260801c5b68800000000000000000831615612cb85770010000000000000058b90bfbe8e7bce5440260801c5b68400000000000000000831615612ce0577001000000000000002c5c85fdf473de6eca0260801c5b68200000000000000000831615612d0857700100000000000000162e42fefa39ef366f0260801c5b68100000000000000000831615612d30577001000000000000000b17217f7d1cf79afa0260801c5b68080000000000000000831615612d5857700100000000000000058b90bfbe8e7bcd6d0260801c5b68040000000000000000831615612d805770010000000000000002c5c85fdf473de6b20260801c5b68020000000000000000831615612da8577001000000000000000162e42fefa39ef3580260801c5b600160401b831615612dcb5770010000000000000000b17217f7d1cf79ab0260801c5b678000000000000000831615612df2577001000000000000000058b90bfbe8e7bcd50260801c5b674000000000000000831615612e1957700100000000000000002c5c85fdf473de6a0260801c5b672000000000000000831615612e405770010000000000000000162e42fefa39ef340260801c5b671000000000000000831615612e6757700100000000000000000b17217f7d1cf7990260801c5b670800000000000000831615612e8e5770010000000000000000058b90bfbe8e7bcc0260801c5b670400000000000000831615612eb5577001000000000000000002c5c85fdf473de50260801c5b670200000000000000831615612edc57700100000000000000000162e42fefa39ef20260801c5b670100000000000000831615612f03577001000000000000000000b17217f7d1cf780260801c5b6680000000000000831615612f2957700100000000000000000058b90bfbe8e7bb0260801c5b6640000000000000831615612f4f5770010000000000000000002c5c85fdf473dd0260801c5b6620000000000000831615612f75577001000000000000000000162e42fefa39ee0260801c5b6610000000000000831615612f9b5770010000000000000000000b17217f7d1cf60260801c5b6608000000000000831615612fc1577001000000000000000000058b90bfbe8e7a0260801c5b6604000000000000831615612fe757700100000000000000000002c5c85fdf473c0260801c5b660200000000000083161561300d5770010000000000000000000162e42fefa39d0260801c5b660100000000000083161561303357700100000000000000000000b17217f7d1ce0260801c5b658000000000008316156130585770010000000000000000000058b90bfbe8e60260801c5b6540000000000083161561307d577001000000000000000000002c5c85fdf4720260801c5b652000000000008316156130a257700100000000000000000000162e42fefa380260801c5b651000000000008316156130c7577001000000000000000000000b17217f7d1b0260801c5b650800000000008316156130ec57700100000000000000000000058b90bfbe8d0260801c5b650400000000008316156131115770010000000000000000000002c5c85fdf460260801c5b65020000000000831615613136577001000000000000000000000162e42fefa20260801c5b6501000000000083161561315b5770010000000000000000000000b17217f7d00260801c5b64800000000083161561317f577001000000000000000000000058b90bfbe70260801c5b6440000000008316156131a357700100000000000000000000002c5c85fdf30260801c5b6420000000008316156131c75770010000000000000000000000162e42fef90260801c5b6410000000008316156131eb57700100000000000000000000000b17217f7c0260801c5b64080000000083161561320f5770010000000000000000000000058b90bfbd0260801c5b640400000000831615613233577001000000000000000000000002c5c85fde0260801c5b64020000000083161561325757700100000000000000000000000162e42fee0260801c5b64010000000083161561327b577001000000000000000000000000b17217f60260801c5b638000000083161561329e57700100000000000000000000000058b90bfa0260801c5b63400000008316156132c15770010000000000000000000000002c5c85fc0260801c5b63200000008316156132e4577001000000000000000000000000162e42fd0260801c5b63100000008316156133075770010000000000000000000000000b17217e0260801c5b630800000083161561332a577001000000000000000000000000058b90be0260801c5b630400000083161561334d57700100000000000000000000000002c5c85e0260801c5b63020000008316156133705770010000000000000000000000000162e42e0260801c5b630100000083161561339357700100000000000000000000000000b172160260801c5b628000008316156133b55770010000000000000000000000000058b90a0260801c5b624000008316156133d7577001000000000000000000000000002c5c840260801c5b622000008316156133f957700100000000000000000000000000162e410260801c5b6210000083161561341b577001000000000000000000000000000b17200260801c5b6208000083161561343d57700100000000000000000000000000058b8f0260801c5b6204000083161561345f5770010000000000000000000000000002c5c70260801c5b62020000831615613481577001000000000000000000000000000162e30260801c5b620100008316156134a35770010000000000000000000000000000b1710260801c5b6180008316156134c4577001000000000000000000000000000058b80260801c5b6140008316156134e557700100000000000000000000000000002c5b0260801c5b6120008316156135065770010000000000000000000000000000162d0260801c5b61100083161561352757700100000000000000000000000000000b160260801c5b6108008316156135485770010000000000000000000000000000058a0260801c5b610400831615613569577001000000000000000000000000000002c40260801c5b61020083161561358a577001000000000000000000000000000001610260801c5b6101008316156135ab577001000000000000000000000000000000b00260801c5b60808316156135cb577001000000000000000000000000000000570260801c5b60408316156135eb5770010000000000000000000000000000002b0260801c5b602083161561360b577001000000000000000000000000000000150260801c5b601083161561362b5770010000000000000000000000000000000a0260801c5b600883161561364b577001000000000000000000000000000000040260801c5b600483161561366b577001000000000000000000000000000000010260801c5b8461368c57600f81901c6001600160701b03169050613fff820191506136bb565b613ffe82116136b157600f81901c6001600160701b0316905081613fff0391506136bb565b600091613fee19011c5b60709190911b1760801b95945050505050565b6000602082840312156136e057600080fd5b5035919050565b6001600160a01b03811681146110e657600080fd5b60006020828403121561370e57600080fd5b813561129f816136e7565b6000806040838503121561372c57600080fd5b50508035926020909101359150565b60008060006040848603121561375057600080fd5b83359250602084013567ffffffffffffffff8082111561376f57600080fd5b818601915086601f83011261378357600080fd5b81358181111561379257600080fd5b8760208285010111156137a457600080fd5b6020830194508093505050509250925092565b634e487b7160e01b600052601260045260246000fd5b634e487b7160e01b600052601160045260246000fd5b600060ff8316806137f6576137f66137b7565b8060ff84160491505092915050565b600060018201613817576138176137cd565b5060010190565b634e487b7160e01b600052604160045260246000fd5b604051601f8201601f1916810167ffffffffffffffff8111828210171561385d5761385d61381e565b604052919050565b600067ffffffffffffffff82111561387f5761387f61381e565b50601f01601f191660200190565b600080604083850312156138a057600080fd5b82359150602083013567ffffffffffffffff8111156138be57600080fd5b8301601f810185136138cf57600080fd5b80356138e26138dd82613865565b613834565b8181528660208385010111156138f757600080fd5b816020840160208301376000602083830101528093505050509250929050565b60005b8381101561393257818101518382015260200161391a565b50506000910152565b60006139496138dd84613865565b905082815283838301111561395d57600080fd5b61129f836020830184613917565b6000806040838503121561397e57600080fd5b82519150602083015167ffffffffffffffff81111561399c57600080fd5b8301601f810185136139ad57600080fd5b6139bc8582516020840161393b565b9150509250929050565b8183823760009101908152919050565b634e487b7160e01b600052603260045260246000fd5b81810381811115611060576110606137cd565b80820180821115611060576110606137cd565b8281526040602082015260008251806040840152613a37816060850160208701613917565b601f01601f1916919091016060019392505050565b8082028115828204841417611060576110606137cd565b600082613a7257613a726137b7565b500490565b600060208284031215613a8957600080fd5b5051919050565b600060208284031215613aa257600080fd5b815167ffffffffffffffff811115613ab957600080fd5b8201601f81018413613aca57600080fd5b613ad98482516020840161393b565b949350505050565b60008251613af3818460208701613917565b9190910192915050565b600081613b0c57613b0c6137cd565b506000190190565b634e487b7160e01b600052600160045260246000fdfea26469706673582212209ad22abafa19a46bdb04b1e314e8170872837329328d28a1767daac5b2c9c02564736f6c63430008130033",
  "devdoc": {
    "events": {
      "RequestedRandomness(uint256,bytes)": {
        "params": {
          "data": "Additional data associated with the request."
        }
      }
    },
    "kind": "dev",
    "methods": {
      "fulfillRandomness(uint256,bytes)": {
        "params": {
          "dataWithRound": "Additional data provided by Gelato VRF containing request details.",
          "randomness": "The random number generated by Gelato VRF."
        }
      },
      "owner()": {
        "details": "Returns the address of the current owner."
      },
      "renounceOwnership()": {
        "details": "Leaves the contract without owner. It will not be possible to call `onlyOwner` functions. Can only be called by the current owner. NOTE: Renouncing ownership will leave the contract without an owner, thereby disabling any functionality that is only available to the owner."
      },
      "transferOwnership(address)": {
        "details": "Transfers ownership of the contract to a new account (`newOwner`). Can only be called by the current owner."
      }
    },
    "version": 1
  },
  "userdoc": {
    "events": {
      "RequestedRandomness(uint256,bytes)": {
        "notice": "Event emitted when a randomness request is made."
      }
    },
    "kind": "user",
    "methods": {
      "fulfillRandomness(uint256,bytes)": {
        "notice": "Callback function used by Gelato VRF to return the random number. The randomness is derived by hashing the provided randomness with the request ID."
      }
    },
    "version": 1
  },
  "storageLayout": {
    "storage": [
      {
        "astId": 11869,
        "contract": "contracts/Curve.sol:Curve",
        "label": "requestPending",
        "offset": 0,
        "slot": "0",
        "type": "t_array(t_bool)dyn_storage"
      },
      {
        "astId": 11873,
        "contract": "contracts/Curve.sol:Curve",
        "label": "requestedHash",
        "offset": 0,
        "slot": "1",
        "type": "t_mapping(t_uint256,t_bytes32)"
      },
      {
        "astId": 7,
        "contract": "contracts/Curve.sol:Curve",
        "label": "_owner",
        "offset": 0,
        "slot": "2",
        "type": "t_address"
      },
      {
        "astId": 9317,
        "contract": "contracts/Curve.sol:Curve",
        "label": "requests",
        "offset": 0,
        "slot": "3",
        "type": "t_mapping(t_uint256,t_struct(Request)9312_storage)"
      },
      {
        "astId": 9319,
        "contract": "contracts/Curve.sol:Curve",
        "label": "nftsCount",
        "offset": 0,
        "slot": "4",
        "type": "t_uint256"
      },
      {
        "astId": 9321,
        "contract": "contracts/Curve.sol:Curve",
        "label": "gameEnded",
        "offset": 0,
        "slot": "5",
        "type": "t_bool"
      },
      {
        "astId": 9323,
        "contract": "contracts/Curve.sol:Curve",
        "label": "ukrainianFlagPrizeMultiplier",
        "offset": 0,
        "slot": "6",
        "type": "t_uint256"
      },
      {
        "astId": 9325,
        "contract": "contracts/Curve.sol:Curve",
        "label": "rarePrizeMultiplier",
        "offset": 0,
        "slot": "7",
        "type": "t_uint256"
      },
      {
        "astId": 9339,
        "contract": "contracts/Curve.sol:Curve",
        "label": "reserve",
        "offset": 0,
        "slot": "8",
        "type": "t_uint256"
      },
      {
        "astId": 9346,
        "contract": "contracts/Curve.sol:Curve",
        "label": "nft",
        "offset": 0,
        "slot": "9",
        "type": "t_contract(ERC721)11420"
      }
    ],
    "types": {
      "t_address": {
        "encoding": "inplace",
        "label": "address",
        "numberOfBytes": "20"
      },
      "t_array(t_bool)dyn_storage": {
        "base": "t_bool",
        "encoding": "dynamic_array",
        "label": "bool[]",
        "numberOfBytes": "32"
      },
      "t_bool": {
        "encoding": "inplace",
        "label": "bool",
        "numberOfBytes": "1"
      },
      "t_bytes32": {
        "encoding": "inplace",
        "label": "bytes32",
        "numberOfBytes": "32"
      },
      "t_contract(ERC721)11420": {
        "encoding": "inplace",
        "label": "contract ERC721",
        "numberOfBytes": "20"
      },
      "t_mapping(t_uint256,t_bytes32)": {
        "encoding": "mapping",
        "key": "t_uint256",
        "label": "mapping(uint256 => bytes32)",
        "numberOfBytes": "32",
        "value": "t_bytes32"
      },
      "t_mapping(t_uint256,t_struct(Request)9312_storage)": {
        "encoding": "mapping",
        "key": "t_uint256",
        "label": "mapping(uint256 => struct Curve.Request)",
        "numberOfBytes": "32",
        "value": "t_struct(Request)9312_storage"
      },
      "t_struct(Request)9312_storage": {
        "encoding": "inplace",
        "label": "struct Curve.Request",
        "members": [
          {
            "astId": 9303,
            "contract": "contracts/Curve.sol:Curve",
            "label": "isMint",
            "offset": 0,
            "slot": "0",
            "type": "t_bool"
          },
          {
            "astId": 9305,
            "contract": "contracts/Curve.sol:Curve",
            "label": "_address",
            "offset": 1,
            "slot": "0",
            "type": "t_address"
          },
          {
            "astId": 9307,
            "contract": "contracts/Curve.sol:Curve",
            "label": "_price",
            "offset": 0,
            "slot": "1",
            "type": "t_uint256"
          },
          {
            "astId": 9309,
            "contract": "contracts/Curve.sol:Curve",
            "label": "_reserve",
            "offset": 0,
            "slot": "2",
            "type": "t_uint256"
          },
          {
            "astId": 9311,
            "contract": "contracts/Curve.sol:Curve",
            "label": "_tokenId",
            "offset": 0,
            "slot": "3",
            "type": "t_uint256"
          }
        ],
        "numberOfBytes": "128"
      },
      "t_uint256": {
        "encoding": "inplace",
        "label": "uint256",
        "numberOfBytes": "32"
      }
    }
  }
}